{
  "_format": "hh-sol-artifact-1",
  "contractName": "TokenExchange",
  "sourceName": "contracts/exchange.sol",
  "abi": [
    {
      "inputs": [],
      "stateMutability": "nonpayable",
      "type": "constructor"
    },
    {
      "inputs": [
        {
          "internalType": "address",
          "name": "owner",
          "type": "address"
        }
      ],
      "name": "OwnableInvalidOwner",
      "type": "error"
    },
    {
      "inputs": [
        {
          "internalType": "address",
          "name": "account",
          "type": "address"
        }
      ],
      "name": "OwnableUnauthorizedAccount",
      "type": "error"
    },
    {
      "anonymous": false,
      "inputs": [
        {
          "indexed": true,
          "internalType": "address",
          "name": "previousOwner",
          "type": "address"
        },
        {
          "indexed": true,
          "internalType": "address",
          "name": "newOwner",
          "type": "address"
        }
      ],
      "name": "OwnershipTransferred",
      "type": "event"
    },
    {
      "inputs": [],
      "name": "addLiquidity",
      "outputs": [],
      "stateMutability": "payable",
      "type": "function"
    },
    {
      "inputs": [
        {
          "internalType": "uint256",
          "name": "amountTokens",
          "type": "uint256"
        }
      ],
      "name": "createPool",
      "outputs": [],
      "stateMutability": "payable",
      "type": "function"
    },
    {
      "inputs": [],
      "name": "exchange_name",
      "outputs": [
        {
          "internalType": "string",
          "name": "",
          "type": "string"
        }
      ],
      "stateMutability": "view",
      "type": "function"
    },
    {
      "inputs": [],
      "name": "getLps",
      "outputs": [
        {
          "internalType": "uint256",
          "name": "",
          "type": "uint256"
        }
      ],
      "stateMutability": "payable",
      "type": "function"
    },
    {
      "inputs": [],
      "name": "getReserves",
      "outputs": [
        {
          "internalType": "uint256",
          "name": "",
          "type": "uint256"
        },
        {
          "internalType": "uint256",
          "name": "",
          "type": "uint256"
        }
      ],
      "stateMutability": "view",
      "type": "function"
    },
    {
      "inputs": [],
      "name": "getSwapFee",
      "outputs": [
        {
          "internalType": "uint256",
          "name": "",
          "type": "uint256"
        },
        {
          "internalType": "uint256",
          "name": "",
          "type": "uint256"
        }
      ],
      "stateMutability": "view",
      "type": "function"
    },
    {
      "inputs": [],
      "name": "owner",
      "outputs": [
        {
          "internalType": "address",
          "name": "",
          "type": "address"
        }
      ],
      "stateMutability": "view",
      "type": "function"
    },
    {
      "inputs": [
        {
          "internalType": "uint256",
          "name": "maxSlippagePct",
          "type": "uint256"
        }
      ],
      "name": "removeAllLiquidity",
      "outputs": [],
      "stateMutability": "payable",
      "type": "function"
    },
    {
      "inputs": [
        {
          "internalType": "uint256",
          "name": "amountETH",
          "type": "uint256"
        },
        {
          "internalType": "uint256",
          "name": "maxSlippagePct",
          "type": "uint256"
        }
      ],
      "name": "removeLiquidity",
      "outputs": [],
      "stateMutability": "payable",
      "type": "function"
    },
    {
      "inputs": [],
      "name": "renounceOwnership",
      "outputs": [],
      "stateMutability": "nonpayable",
      "type": "function"
    },
    {
      "inputs": [
        {
          "internalType": "uint256",
          "name": "maxSlippagePct",
          "type": "uint256"
        }
      ],
      "name": "swapETHForTokens",
      "outputs": [],
      "stateMutability": "payable",
      "type": "function"
    },
    {
      "inputs": [
        {
          "internalType": "uint256",
          "name": "amountTokens",
          "type": "uint256"
        },
        {
          "internalType": "uint256",
          "name": "maxSlippagePct",
          "type": "uint256"
        }
      ],
      "name": "swapTokensForETH",
      "outputs": [],
      "stateMutability": "payable",
      "type": "function"
    },
    {
      "inputs": [],
      "name": "token",
      "outputs": [
        {
          "internalType": "contract Token",
          "name": "",
          "type": "address"
        }
      ],
      "stateMutability": "view",
      "type": "function"
    },
    {
      "inputs": [
        {
          "internalType": "address",
          "name": "newOwner",
          "type": "address"
        }
      ],
      "name": "transferOwnership",
      "outputs": [],
      "stateMutability": "nonpayable",
      "type": "function"
    }
  ],
  "bytecode": "0x60806040526040518060400160405280600b81526020017f546f6b656e4465616c6572000000000000000000000000000000000000000000815250600190816200004a91906200050c565b50735fbdb2315678afecb367f032d93f642f64180aa3600260006101000a81548173ffffffffffffffffffffffffffffffffffffffff021916908373ffffffffffffffffffffffffffffffffffffffff160217905550600260009054906101000a900473ffffffffffffffffffffffffffffffffffffffff16600360006101000a81548173ffffffffffffffffffffffffffffffffffffffff021916908373ffffffffffffffffffffffffffffffffffffffff16021790555060006004556000600555600060065560006007556000600a556003600b556064600c55670de0b6b3a7640000600e553480156200013f57600080fd5b5033600073ffffffffffffffffffffffffffffffffffffffff168173ffffffffffffffffffffffffffffffffffffffff1603620001b65760006040517f1e4fbdf7000000000000000000000000000000000000000000000000000000008152600401620001ad919062000638565b60405180910390fd5b620001c781620001ce60201b60201c565b5062000655565b60008060009054906101000a900473ffffffffffffffffffffffffffffffffffffffff169050816000806101000a81548173ffffffffffffffffffffffffffffffffffffffff021916908373ffffffffffffffffffffffffffffffffffffffff1602179055508173ffffffffffffffffffffffffffffffffffffffff168173ffffffffffffffffffffffffffffffffffffffff167f8be0079c531659141344cd1fd0a4f28419497f9722a3daafe3b4186f6b6457e060405160405180910390a35050565b600081519050919050565b7f4e487b7100000000000000000000000000000000000000000000000000000000600052604160045260246000fd5b7f4e487b7100000000000000000000000000000000000000000000000000000000600052602260045260246000fd5b600060028204905060018216806200031457607f821691505b6020821081036200032a5762000329620002cc565b5b50919050565b60008190508160005260206000209050919050565b60006020601f8301049050919050565b600082821b905092915050565b600060088302620003947fffffffffffffffffffffffffffffffffffffffffffffffffffffffffffffffff8262000355565b620003a0868362000355565b95508019841693508086168417925050509392505050565b6000819050919050565b6000819050919050565b6000620003ed620003e7620003e184620003b8565b620003c2565b620003b8565b9050919050565b6000819050919050565b6200040983620003cc565b620004216200041882620003f4565b84845462000362565b825550505050565b600090565b6200043862000429565b62000445818484620003fe565b505050565b5b818110156200046d57620004616000826200042e565b6001810190506200044b565b5050565b601f821115620004bc57620004868162000330565b620004918462000345565b81016020851015620004a1578190505b620004b9620004b08562000345565b8301826200044a565b50505b505050565b600082821c905092915050565b6000620004e160001984600802620004c1565b1980831691505092915050565b6000620004fc8383620004ce565b9150826002028217905092915050565b620005178262000292565b67ffffffffffffffff8111156200053357620005326200029d565b5b6200053f8254620002fb565b6200054c82828562000471565b600060209050601f8311600181146200058457600084156200056f578287015190505b6200057b8582620004ee565b865550620005eb565b601f198416620005948662000330565b60005b82811015620005be5784890151825560018201915060208501945060208101905062000597565b86831015620005de5784890151620005da601f891682620004ce565b8355505b6001600288020188555050505b505050505050565b600073ffffffffffffffffffffffffffffffffffffffff82169050919050565b60006200062082620005f3565b9050919050565b620006328162000613565b82525050565b60006020820190506200064f600083018462000627565b92915050565b61305380620006656000396000f3fe6080604052600436106100dd5760003560e01c8063a22280a61161007f578063e8078d9411610059578063e8078d9414610226578063f2fde38b14610230578063f694f7d114610259578063fc0c546a14610284576100dd565b8063a22280a6146101c2578063a594f3e8146101de578063d4cadf68146101fa576100dd565b806380e1a785116100bb57806380e1a785146101415780638259e6a01461015f5780638da5cb5b1461017b5780639d7de6b3146101a6576100dd565b80630902f1ac146100e25780632eab28411461010e578063715018a61461012a575b600080fd5b3480156100ee57600080fd5b506100f76102af565b604051610105929190612233565b60405180910390f35b6101286004803603810190610123919061228d565b6102c0565b005b34801561013657600080fd5b5061013f6105c7565b005b6101496105db565b60405161015691906122ba565b60405180910390f35b6101796004803603810190610174919061228d565b610622565b005b34801561018757600080fd5b506101906109e4565b60405161019d9190612316565b60405180910390f35b6101c060048036038101906101bb9190612331565b610a0d565b005b6101dc60048036038101906101d79190612331565b611065565b005b6101f860048036038101906101f3919061228d565b61139b565b005b34801561020657600080fd5b5061020f611a07565b60405161021d929190612233565b60405180910390f35b61022e611a18565b005b34801561023c57600080fd5b506102576004803603810190610252919061239d565b611f8d565b005b34801561026557600080fd5b5061026e612013565b60405161027b919061245a565b60405180910390f35b34801561029057600080fd5b506102996120a1565b6040516102a691906124db565b60405180910390f35b600080600554600454915091509091565b6000346005546102d09190612525565b600d546102dd9190612588565b6004546102ea91906125b9565b90508060045411610330576040517f08c379a00000000000000000000000000000000000000000000000000000000081526004016103279061265f565b60405180910390fd5b6000600e548260045461034391906125b9565b61034d9190612588565b600e5460045461035d9190612588565b61036791906125b9565b90506000600e5460055461037b919061267f565b60045434610389919061267f565b6103939190612588565b905083816103a1919061267f565b600e54606484846103b291906125b9565b6103bc919061267f565b6103c6919061267f565b1115610407576040517f08c379a00000000000000000000000000000000000000000000000000000000081526004016103fe9061270d565b60405180910390fd5b34600560008282546104199190612525565b925050819055506000600360009054906101000a900473ffffffffffffffffffffffffffffffffffffffff1673ffffffffffffffffffffffffffffffffffffffff1663095ea7b330856040518363ffffffff1660e01b815260040161047f92919061272d565b6020604051808303816000875af115801561049e573d6000803e3d6000fd5b505050506040513d601f19601f820116820180604052508101906104c2919061278e565b905080610504576040517f08c379a00000000000000000000000000000000000000000000000000000000081526004016104fb90612807565b60405180910390fd5b600360009054906101000a900473ffffffffffffffffffffffffffffffffffffffff1673ffffffffffffffffffffffffffffffffffffffff166323b872dd3033866040518463ffffffff1660e01b815260040161056393929190612827565b6020604051808303816000875af1158015610582573d6000803e3d6000fd5b505050506040513d601f19601f820116820180604052508101906105a6919061278e565b5083600460008282546105b991906125b9565b925050819055505050505050565b6105cf6120c7565b6105d9600061214e565b565b6000600860003373ffffffffffffffffffffffffffffffffffffffff1673ffffffffffffffffffffffffffffffffffffffff16815260200190815260200160002054905090565b61062a6120c7565b60006004541461066f576040517f08c379a0000000000000000000000000000000000000000000000000000000008152600401610666906128aa565b60405180910390fd5b6000600554146106b4576040517f08c379a00000000000000000000000000000000000000000000000000000000081526004016106ab90612916565b60405180910390fd5b600034116106f7576040517f08c379a00000000000000000000000000000000000000000000000000000000081526004016106ee90612982565b60405180910390fd5b6000600360009054906101000a900473ffffffffffffffffffffffffffffffffffffffff1673ffffffffffffffffffffffffffffffffffffffff166370a08231336040518263ffffffff1660e01b81526004016107549190612316565b602060405180830381865afa158015610771573d6000803e3d6000fd5b505050506040513d601f19601f8201168201806040525081019061079591906129b7565b9050808211156107da576040517f08c379a00000000000000000000000000000000000000000000000000000000081526004016107d190612a56565b60405180910390fd5b6000821161081d576040517f08c379a000000000000000000000000000000000000000000000000000000000815260040161081490612ac2565b60405180910390fd5b600360009054906101000a900473ffffffffffffffffffffffffffffffffffffffff1673ffffffffffffffffffffffffffffffffffffffff166323b872dd3330856040518463ffffffff1660e01b815260040161087c93929190612827565b6020604051808303816000875af115801561089b573d6000803e3d6000fd5b505050506040513d601f19601f820116820180604052508101906108bf919061278e565b50600e54600360009054906101000a900473ffffffffffffffffffffffffffffffffffffffff1673ffffffffffffffffffffffffffffffffffffffff166370a08231306040518263ffffffff1660e01b815260040161091e9190612316565b602060405180830381865afa15801561093b573d6000803e3d6000fd5b505050506040513d601f19601f8201168201806040525081019061095f91906129b7565b610969919061267f565b60048190555034600581905550600554600454610986919061267f565b600d81905550670de0b6b3a7640000600a819055506000600860003373ffffffffffffffffffffffffffffffffffffffff1673ffffffffffffffffffffffffffffffffffffffff168152602001908152602001600020819055505050565b60008060009054906101000a900473ffffffffffffffffffffffffffffffffffffffff16905090565b600060055483600454610a20919061267f565b610a2a9190612588565b9050600e5483610a3a9190612525565b60055410158015610a5a575080600e54610a549190612525565b60045410155b610a99576040517f08c379a0000000000000000000000000000000000000000000000000000000008152600401610a9090612b54565b60405180910390fd5b82600a54610aa7919061267f565b600554600860003373ffffffffffffffffffffffffffffffffffffffff1673ffffffffffffffffffffffffffffffffffffffff16815260200190815260200160002054610af4919061267f565b10158015610b5b575080600a54610b0b919061267f565b600454600860003373ffffffffffffffffffffffffffffffffffffffff1673ffffffffffffffffffffffffffffffffffffffff16815260200190815260200160002054610b58919061267f565b10155b610b9a576040517f08c379a0000000000000000000000000000000000000000000000000000000008152600401610b9190612be6565b60405180910390fd5b6000600e5482610baa9190612588565b905060005b600980549050811015610d91576000600a546008600060098581548110610bd957610bd8612c06565b5b9060005260206000200160009054906101000a900473ffffffffffffffffffffffffffffffffffffffff1673ffffffffffffffffffffffffffffffffffffffff1673ffffffffffffffffffffffffffffffffffffffff16815260200190815260200160002054600554610c4c919061267f565b610c569190612588565b90503373ffffffffffffffffffffffffffffffffffffffff1660098381548110610c8357610c82612c06565b5b9060005260206000200160009054906101000a900473ffffffffffffffffffffffffffffffffffffffff1673ffffffffffffffffffffffffffffffffffffffff1603610cd8578581610cd591906125b9565b90505b85600554610ce691906125b9565b81600a54610cf4919061267f565b610cfe9190612588565b6008600060098581548110610d1657610d15612c06565b5b9060005260206000200160009054906101000a900473ffffffffffffffffffffffffffffffffffffffff1673ffffffffffffffffffffffffffffffffffffffff1673ffffffffffffffffffffffffffffffffffffffff168152602001908152602001600020819055505080610d8a90612c35565b9050610baf565b506000600e5483600454610da591906125b9565b610daf9190612588565b600e54600454610dbf9190612588565b610dc991906125b9565b905080821080610e0857508382610de0919061267f565b600e5460648385610df191906125b9565b610dfb919061267f565b610e05919061267f565b11155b610e47576040517f08c379a0000000000000000000000000000000000000000000000000000000008152600401610e3e90612cc9565b60405180910390fd5b6000600360009054906101000a900473ffffffffffffffffffffffffffffffffffffffff1673ffffffffffffffffffffffffffffffffffffffff1663095ea7b330846040518363ffffffff1660e01b8152600401610ea692919061272d565b6020604051808303816000875af1158015610ec5573d6000803e3d6000fd5b505050506040513d601f19601f82011682018060405250810190610ee9919061278e565b905080610f2b576040517f08c379a0000000000000000000000000000000000000000000000000000000008152600401610f2290612807565b60405180910390fd5b600360009054906101000a900473ffffffffffffffffffffffffffffffffffffffff1673ffffffffffffffffffffffffffffffffffffffff166323b872dd3033856040518463ffffffff1660e01b8152600401610f8a93929190612827565b6020604051808303816000875af1158015610fa9573d6000803e3d6000fd5b505050506040513d601f19601f82011682018060405250810190610fcd919061278e565b508360046000828254610fe091906125b9565b925050819055503373ffffffffffffffffffffffffffffffffffffffff166108fc879081150290604051600060405180830381858888f1935050505015801561102d573d6000803e3d6000fd5b50856005600082825461104091906125b9565b92505081905550600554600454611057919061267f565b600d81905550505050505050565b600e5482611073919061267f565b9150600e54600360009054906101000a900473ffffffffffffffffffffffffffffffffffffffff1673ffffffffffffffffffffffffffffffffffffffff166370a08231336040518263ffffffff1660e01b81526004016110d39190612316565b602060405180830381865afa1580156110f0573d6000803e3d6000fd5b505050506040513d601f19601f8201168201806040525081019061111491906129b7565b61111e919061267f565b821115611160576040517f08c379a000000000000000000000000000000000000000000000000000000000815260040161115790612d5b565b60405180910390fd5b6000826004546111709190612525565b600d5461117d9190612588565b60055461118a91906125b9565b90508060055411801561119c57508047115b6111db576040517f08c379a00000000000000000000000000000000000000000000000000000000081526004016111d290612dc7565b60405180910390fd5b6000600454600554856111ee919061267f565b6111f89190612588565b90508281611206919061267f565b600e546064848461121791906125b9565b611221919061267f565b61122b919061267f565b111561126c576040517f08c379a000000000000000000000000000000000000000000000000000000000815260040161126390612e33565b60405180910390fd5b836004600082825461127e9190612525565b92505081905550600360009054906101000a900473ffffffffffffffffffffffffffffffffffffffff1673ffffffffffffffffffffffffffffffffffffffff166323b872dd3330600e54886112d39190612588565b6040518463ffffffff1660e01b81526004016112f193929190612827565b6020604051808303816000875af1158015611310573d6000803e3d6000fd5b505050506040513d601f19601f82011682018060405250810190611334919061278e565b503373ffffffffffffffffffffffffffffffffffffffff166108fc839081150290604051600060405180830381858888f1935050505015801561137b573d6000803e3d6000fd5b50816005600082825461138e91906125b9565b9250508190555050505050565b6000600a54600554600860003373ffffffffffffffffffffffffffffffffffffffff1673ffffffffffffffffffffffffffffffffffffffff168152602001908152602001600020546113ed919061267f565b6113f79190612588565b90506000600a54600454600860003373ffffffffffffffffffffffffffffffffffffffff1673ffffffffffffffffffffffffffffffffffffffff1681526020019081526020016000205461144b919061267f565b6114559190612588565b90506000600860003373ffffffffffffffffffffffffffffffffffffffff1673ffffffffffffffffffffffffffffffffffffffff16815260200190815260200160002054116114d9576040517f08c379a00000000000000000000000000000000000000000000000000000000081526004016114d090612e9f565b60405180910390fd5b600e54826114e79190612525565b60055410158015611507575080600e546115019190612525565b60045410155b611546576040517f08c379a000000000000000000000000000000000000000000000000000000000815260040161153d90612b54565b60405180910390fd5b6000600e54826115569190612588565b905060005b600980549050811015611733576000600a54600860006009858154811061158557611584612c06565b5b9060005260206000200160009054906101000a900473ffffffffffffffffffffffffffffffffffffffff1673ffffffffffffffffffffffffffffffffffffffff1673ffffffffffffffffffffffffffffffffffffffff168152602001908152602001600020546005546115f8919061267f565b6116029190612588565b90503373ffffffffffffffffffffffffffffffffffffffff166009838154811061162f5761162e612c06565b5b9060005260206000200160009054906101000a900473ffffffffffffffffffffffffffffffffffffffff1673ffffffffffffffffffffffffffffffffffffffff160361167a57600090505b8460055461168891906125b9565b81600a54611696919061267f565b6116a09190612588565b60086000600985815481106116b8576116b7612c06565b5b9060005260206000200160009054906101000a900473ffffffffffffffffffffffffffffffffffffffff1673ffffffffffffffffffffffffffffffffffffffff1673ffffffffffffffffffffffffffffffffffffffff16815260200190815260200160002081905550508061172c90612c35565b905061155b565b506000600e548360045461174791906125b9565b6117519190612588565b600e546004546117619190612588565b61176b91906125b9565b9050808210806117aa57508482611782919061267f565b600e546064838561179391906125b9565b61179d919061267f565b6117a7919061267f565b11155b6117e9576040517f08c379a00000000000000000000000000000000000000000000000000000000081526004016117e090612cc9565b60405180910390fd5b6000600360009054906101000a900473ffffffffffffffffffffffffffffffffffffffff1673ffffffffffffffffffffffffffffffffffffffff1663095ea7b330846040518363ffffffff1660e01b815260040161184892919061272d565b6020604051808303816000875af1158015611867573d6000803e3d6000fd5b505050506040513d601f19601f8201168201806040525081019061188b919061278e565b9050806118cd576040517f08c379a00000000000000000000000000000000000000000000000000000000081526004016118c490612807565b60405180910390fd5b600360009054906101000a900473ffffffffffffffffffffffffffffffffffffffff1673ffffffffffffffffffffffffffffffffffffffff166323b872dd3033856040518463ffffffff1660e01b815260040161192c93929190612827565b6020604051808303816000875af115801561194b573d6000803e3d6000fd5b505050506040513d601f19601f8201168201806040525081019061196f919061278e565b50836004600082825461198291906125b9565b925050819055503373ffffffffffffffffffffffffffffffffffffffff166108fc869081150290604051600060405180830381858888f193505050501580156119cf573d6000803e3d6000fd5b5084600560008282546119e291906125b9565b925050819055506005546004546119f9919061267f565b600d81905550505050505050565b600080600b54600c54915091509091565b60003411611a5b576040517f08c379a0000000000000000000000000000000000000000000000000000000008152600401611a5290612f0b565b60405180910390fd5b6000600360009054906101000a900473ffffffffffffffffffffffffffffffffffffffff1673ffffffffffffffffffffffffffffffffffffffff166370a08231336040518263ffffffff1660e01b8152600401611ab89190612316565b602060405180830381865afa158015611ad5573d6000803e3d6000fd5b505050506040513d601f19601f82011682018060405250810190611af991906129b7565b9050600060055434600454611b0e919061267f565b611b189190612588565b9050600e5482611b28919061267f565b811115611b6a576040517f08c379a0000000000000000000000000000000000000000000000000000000008152600401611b6190612f9d565b60405180910390fd5b60005b600980549050811015611d4f576000600a546008600060098581548110611b9757611b96612c06565b5b9060005260206000200160009054906101000a900473ffffffffffffffffffffffffffffffffffffffff1673ffffffffffffffffffffffffffffffffffffffff1673ffffffffffffffffffffffffffffffffffffffff16815260200190815260200160002054600554611c0a919061267f565b611c149190612588565b90503373ffffffffffffffffffffffffffffffffffffffff1660098381548110611c4157611c40612c06565b5b9060005260206000200160009054906101000a900473ffffffffffffffffffffffffffffffffffffffff1673ffffffffffffffffffffffffffffffffffffffff1603611c96573481611c939190612525565b90505b34600554611ca49190612525565b81600a54611cb2919061267f565b611cbc9190612588565b6008600060098581548110611cd457611cd3612c06565b5b9060005260206000200160009054906101000a900473ffffffffffffffffffffffffffffffffffffffff1673ffffffffffffffffffffffffffffffffffffffff1673ffffffffffffffffffffffffffffffffffffffff168152602001908152602001600020819055505080611d4890612c35565b9050611b6d565b506000600860003373ffffffffffffffffffffffffffffffffffffffff1673ffffffffffffffffffffffffffffffffffffffff1681526020019081526020016000205403611e645734600554611da59190612525565b34600a54611db3919061267f565b611dbd9190612588565b600860003373ffffffffffffffffffffffffffffffffffffffff1673ffffffffffffffffffffffffffffffffffffffff168152602001908152602001600020819055506009339080600181540180825580915050600190039060005260206000200160009091909190916101000a81548173ffffffffffffffffffffffffffffffffffffffff021916908373ffffffffffffffffffffffffffffffffffffffff1602179055505b6000600e54600454611e769190612588565b600e5483600454611e879190612525565b611e919190612588565b611e9b91906125b9565b9050600360009054906101000a900473ffffffffffffffffffffffffffffffffffffffff1673ffffffffffffffffffffffffffffffffffffffff166323b872dd3330846040518463ffffffff1660e01b8152600401611efc93929190612827565b6020604051808303816000875af1158015611f1b573d6000803e3d6000fd5b505050506040513d601f19601f82011682018060405250810190611f3f919061278e565b508160046000828254611f529190612525565b925050819055503460056000828254611f6b9190612525565b92505081905550600554600454611f82919061267f565b600d81905550505050565b611f956120c7565b600073ffffffffffffffffffffffffffffffffffffffff168173ffffffffffffffffffffffffffffffffffffffff16036120075760006040517f1e4fbdf7000000000000000000000000000000000000000000000000000000008152600401611ffe9190612316565b60405180910390fd5b6120108161214e565b50565b6001805461202090612fec565b80601f016020809104026020016040519081016040528092919081815260200182805461204c90612fec565b80156120995780601f1061206e57610100808354040283529160200191612099565b820191906000526020600020905b81548152906001019060200180831161207c57829003601f168201915b505050505081565b600360009054906101000a900473ffffffffffffffffffffffffffffffffffffffff1681565b6120cf612212565b73ffffffffffffffffffffffffffffffffffffffff166120ed6109e4565b73ffffffffffffffffffffffffffffffffffffffff161461214c57612110612212565b6040517f118cdaa70000000000000000000000000000000000000000000000000000000081526004016121439190612316565b60405180910390fd5b565b60008060009054906101000a900473ffffffffffffffffffffffffffffffffffffffff169050816000806101000a81548173ffffffffffffffffffffffffffffffffffffffff021916908373ffffffffffffffffffffffffffffffffffffffff1602179055508173ffffffffffffffffffffffffffffffffffffffff168173ffffffffffffffffffffffffffffffffffffffff167f8be0079c531659141344cd1fd0a4f28419497f9722a3daafe3b4186f6b6457e060405160405180910390a35050565b600033905090565b6000819050919050565b61222d8161221a565b82525050565b60006040820190506122486000830185612224565b6122556020830184612224565b9392505050565b600080fd5b61226a8161221a565b811461227557600080fd5b50565b60008135905061228781612261565b92915050565b6000602082840312156122a3576122a261225c565b5b60006122b184828501612278565b91505092915050565b60006020820190506122cf6000830184612224565b92915050565b600073ffffffffffffffffffffffffffffffffffffffff82169050919050565b6000612300826122d5565b9050919050565b612310816122f5565b82525050565b600060208201905061232b6000830184612307565b92915050565b600080604083850312156123485761234761225c565b5b600061235685828601612278565b925050602061236785828601612278565b9150509250929050565b61237a816122f5565b811461238557600080fd5b50565b60008135905061239781612371565b92915050565b6000602082840312156123b3576123b261225c565b5b60006123c184828501612388565b91505092915050565b600081519050919050565b600082825260208201905092915050565b60005b838110156124045780820151818401526020810190506123e9565b60008484015250505050565b6000601f19601f8301169050919050565b600061242c826123ca565b61243681856123d5565b93506124468185602086016123e6565b61244f81612410565b840191505092915050565b600060208201905081810360008301526124748184612421565b905092915050565b6000819050919050565b60006124a161249c612497846122d5565b61247c565b6122d5565b9050919050565b60006124b382612486565b9050919050565b60006124c5826124a8565b9050919050565b6124d5816124ba565b82525050565b60006020820190506124f060008301846124cc565b92915050565b7f4e487b7100000000000000000000000000000000000000000000000000000000600052601160045260246000fd5b60006125308261221a565b915061253b8361221a565b9250828201905080821115612553576125526124f6565b5b92915050565b7f4e487b7100000000000000000000000000000000000000000000000000000000600052601260045260246000fd5b60006125938261221a565b915061259e8361221a565b9250826125ae576125ad612559565b5b828204905092915050565b60006125c48261221a565b91506125cf8361221a565b92508282039050818111156125e7576125e66124f6565b5b92915050565b7f43616e6e6f742072656d6f766520616c6c20746f6b656e732066726f6d20746860008201527f6520706f6f6c0000000000000000000000000000000000000000000000000000602082015250565b60006126496026836123d5565b9150612654826125ed565b604082019050919050565b600060208201905081810360008301526126788161263c565b9050919050565b600061268a8261221a565b91506126958361221a565b92508282026126a38161221a565b915082820484148315176126ba576126b96124f6565b5b5092915050565b7f5377617020746f6f206d75636820455448000000000000000000000000000000600082015250565b60006126f76011836123d5565b9150612702826126c1565b602082019050919050565b60006020820190508181036000830152612726816126ea565b9050919050565b60006040820190506127426000830185612307565b61274f6020830184612224565b9392505050565b60008115159050919050565b61276b81612756565b811461277657600080fd5b50565b60008151905061278881612762565b92915050565b6000602082840312156127a4576127a361225c565b5b60006127b284828501612779565b91505092915050565b7f546f6b656e20646f65736e277420617070726f76650000000000000000000000600082015250565b60006127f16015836123d5565b91506127fc826127bb565b602082019050919050565b60006020820190508181036000830152612820816127e4565b9050919050565b600060608201905061283c6000830186612307565b6128496020830185612307565b6128566040830184612224565b949350505050565b7f546f6b656e20726573657276657320776173206e6f7420300000000000000000600082015250565b60006128946018836123d5565b915061289f8261285e565b602082019050919050565b600060208201905081810360008301526128c381612887565b9050919050565b7f45544820726573657276657320776173206e6f7420302e000000000000000000600082015250565b60006129006017836123d5565b915061290b826128ca565b602082019050919050565b6000602082019050818103600083015261292f816128f3565b9050919050565b7f4e6565642065746820746f2063726561746520706f6f6c2e0000000000000000600082015250565b600061296c6018836123d5565b915061297782612936565b602082019050919050565b6000602082019050818103600083015261299b8161295f565b9050919050565b6000815190506129b181612261565b92915050565b6000602082840312156129cd576129cc61225c565b5b60006129db848285016129a2565b91505092915050565b7f4e6f74206861766520656e6f75676820746f6b656e7320746f2063726561746560008201527f2074686520706f6f6c0000000000000000000000000000000000000000000000602082015250565b6000612a406029836123d5565b9150612a4b826129e4565b604082019050919050565b60006020820190508181036000830152612a6f81612a33565b9050919050565b7f4e65656420746f6b656e7320746f2063726561746520706f6f6c2e0000000000600082015250565b6000612aac601b836123d5565b9150612ab782612a76565b602082019050919050565b60006020820190508181036000830152612adb81612a9f565b9050919050565b7f4e6f74206861766520656e6f75676820746f6b656e732f65746820746f20726560008201527f6d6f7665206c6971756964697479000000000000000000000000000000000000602082015250565b6000612b3e602e836123d5565b9150612b4982612ae2565b604082019050919050565b60006020820190508181036000830152612b6d81612b31565b9050919050565b7f4e6f742070726f7669646520656e6f756768206c697175696469747920746f2060008201527f72656d6f76650000000000000000000000000000000000000000000000000000602082015250565b6000612bd06026836123d5565b9150612bdb82612b74565b604082019050919050565b60006020820190508181036000830152612bff81612bc3565b9050919050565b7f4e487b7100000000000000000000000000000000000000000000000000000000600052603260045260246000fd5b6000612c408261221a565b91507fffffffffffffffffffffffffffffffffffffffffffffffffffffffffffffffff8203612c7257612c716124f6565b5b600182019050919050565b7f536c69707061676520746f6f2068696768000000000000000000000000000000600082015250565b6000612cb36011836123d5565b9150612cbe82612c7d565b602082019050919050565b60006020820190508181036000830152612ce281612ca6565b9050919050565b7f53656e64657220646f65736e2774206861766520656e6f75676820746f6b656e60008201527f20746f2073776170000000000000000000000000000000000000000000000000602082015250565b6000612d456028836123d5565b9150612d5082612ce9565b604082019050919050565b60006020820190508181036000830152612d7481612d38565b9050919050565b7f4e6f74206861766520656e6f7567682045544820746f20737761700000000000600082015250565b6000612db1601b836123d5565b9150612dbc82612d7b565b602082019050919050565b60006020820190508181036000830152612de081612da4565b9050919050565b7f5377617020746f6f206d616e7920746f6b656e73000000000000000000000000600082015250565b6000612e1d6014836123d5565b9150612e2882612de7565b602082019050919050565b60006020820190508181036000830152612e4c81612e10565b9050919050565b7f4e6f742070726f7669646520616e79206c697175696469747900000000000000600082015250565b6000612e896019836123d5565b9150612e9482612e53565b602082019050919050565b60006020820190508181036000830152612eb881612e7c565b9050919050565b7f4e6565642065746820746f20616464206c69717569646974792e000000000000600082015250565b6000612ef5601a836123d5565b9150612f0082612ebf565b602082019050919050565b60006020820190508181036000830152612f2481612ee8565b9050919050565b7f4e6f74206861766520656e6f75676820746f6b656e7320746f20616464206c6960008201527f717569646974792e000000000000000000000000000000000000000000000000602082015250565b6000612f876028836123d5565b9150612f9282612f2b565b604082019050919050565b60006020820190508181036000830152612fb681612f7a565b9050919050565b7f4e487b7100000000000000000000000000000000000000000000000000000000600052602260045260246000fd5b6000600282049050600182168061300457607f821691505b60208210810361301757613016612fbd565b5b5091905056fea2646970667358221220275146f496f0cd680145be0c49d27cc0bc8ad93138178d12282af8d66dd7bf8e64736f6c63430008140033",
  "linkReferences": {},
  "deployedLinkReferences": {}
}