{
  "_format": "hh-sol-artifact-1",
  "contractName": "TokenExchange",
  "sourceName": "contracts/exchange.sol",
  "abi": [
    {
      "inputs": [],
      "stateMutability": "nonpayable",
      "type": "constructor"
    },
    {
      "inputs": [
        {
          "internalType": "address",
          "name": "owner",
          "type": "address"
        }
      ],
      "name": "OwnableInvalidOwner",
      "type": "error"
    },
    {
      "inputs": [
        {
          "internalType": "address",
          "name": "account",
          "type": "address"
        }
      ],
      "name": "OwnableUnauthorizedAccount",
      "type": "error"
    },
    {
      "anonymous": false,
      "inputs": [
        {
          "indexed": true,
          "internalType": "address",
          "name": "previousOwner",
          "type": "address"
        },
        {
          "indexed": true,
          "internalType": "address",
          "name": "newOwner",
          "type": "address"
        }
      ],
      "name": "OwnershipTransferred",
      "type": "event"
    },
    {
      "inputs": [
        {
          "internalType": "uint256",
          "name": "minTokenReceive",
          "type": "uint256"
        }
      ],
      "name": "addLiquidity",
      "outputs": [],
      "stateMutability": "payable",
      "type": "function"
    },
    {
      "inputs": [
        {
          "internalType": "uint256",
          "name": "amountTokens",
          "type": "uint256"
        }
      ],
      "name": "createPool",
      "outputs": [],
      "stateMutability": "payable",
      "type": "function"
    },
    {
      "inputs": [],
      "name": "exchange_name",
      "outputs": [
        {
          "internalType": "string",
          "name": "",
          "type": "string"
        }
      ],
      "stateMutability": "view",
      "type": "function"
    },
    {
      "inputs": [],
      "name": "getLps",
      "outputs": [
        {
          "internalType": "uint256",
          "name": "",
          "type": "uint256"
        },
        {
          "internalType": "uint256",
          "name": "",
          "type": "uint256"
        }
      ],
      "stateMutability": "view",
      "type": "function"
    },
    {
      "inputs": [],
      "name": "getReserves",
      "outputs": [
        {
          "internalType": "uint256",
          "name": "",
          "type": "uint256"
        },
        {
          "internalType": "uint256",
          "name": "",
          "type": "uint256"
        }
      ],
      "stateMutability": "view",
      "type": "function"
    },
    {
      "inputs": [
        {
          "internalType": "address",
          "name": "_address",
          "type": "address"
        }
      ],
      "name": "getReward",
      "outputs": [
        {
          "internalType": "uint256",
          "name": "",
          "type": "uint256"
        },
        {
          "internalType": "uint256",
          "name": "",
          "type": "uint256"
        }
      ],
      "stateMutability": "nonpayable",
      "type": "function"
    },
    {
      "inputs": [],
      "name": "getSwapFee",
      "outputs": [
        {
          "internalType": "uint256",
          "name": "",
          "type": "uint256"
        },
        {
          "internalType": "uint256",
          "name": "",
          "type": "uint256"
        }
      ],
      "stateMutability": "view",
      "type": "function"
    },
    {
      "inputs": [],
      "name": "owner",
      "outputs": [
        {
          "internalType": "address",
          "name": "",
          "type": "address"
        }
      ],
      "stateMutability": "view",
      "type": "function"
    },
    {
      "inputs": [
        {
          "internalType": "uint256",
          "name": "minTokenReceive",
          "type": "uint256"
        }
      ],
      "name": "removeAllLiquidity",
      "outputs": [],
      "stateMutability": "payable",
      "type": "function"
    },
    {
      "inputs": [
        {
          "internalType": "uint256",
          "name": "amountETH",
          "type": "uint256"
        },
        {
          "internalType": "uint256",
          "name": "minTokenReceive",
          "type": "uint256"
        }
      ],
      "name": "removeLiquidity",
      "outputs": [],
      "stateMutability": "payable",
      "type": "function"
    },
    {
      "inputs": [],
      "name": "renounceOwnership",
      "outputs": [],
      "stateMutability": "nonpayable",
      "type": "function"
    },
    {
      "inputs": [
        {
          "internalType": "uint256",
          "name": "minTokenReceive",
          "type": "uint256"
        }
      ],
      "name": "swapETHForTokens",
      "outputs": [],
      "stateMutability": "payable",
      "type": "function"
    },
    {
      "inputs": [
        {
          "internalType": "uint256",
          "name": "amountTokens",
          "type": "uint256"
        },
        {
          "internalType": "uint256",
          "name": "minETHReceive",
          "type": "uint256"
        }
      ],
      "name": "swapTokensForETH",
      "outputs": [],
      "stateMutability": "payable",
      "type": "function"
    },
    {
      "inputs": [],
      "name": "token",
      "outputs": [
        {
          "internalType": "contract Token",
          "name": "",
          "type": "address"
        }
      ],
      "stateMutability": "view",
      "type": "function"
    },
    {
      "inputs": [
        {
          "internalType": "address",
          "name": "newOwner",
          "type": "address"
        }
      ],
      "name": "transferOwnership",
      "outputs": [],
      "stateMutability": "nonpayable",
      "type": "function"
    },
    {
      "inputs": [
        {
          "internalType": "address",
          "name": "_address",
          "type": "address"
        },
        {
          "internalType": "uint256",
          "name": "token_transfer",
          "type": "uint256"
        },
        {
          "internalType": "enum TokenExchange.option",
          "name": "choice",
          "type": "uint8"
        }
      ],
      "name": "updateLps",
      "outputs": [],
      "stateMutability": "nonpayable",
      "type": "function"
    },
    {
      "inputs": [
        {
          "internalType": "uint256",
          "name": "amountTokens",
          "type": "uint256"
        },
        {
          "internalType": "uint256",
          "name": "amountETH",
          "type": "uint256"
        }
      ],
      "name": "updateReward",
      "outputs": [],
      "stateMutability": "nonpayable",
      "type": "function"
    }
  ],
  "bytecode": "0x60806040526040518060400160405280600b81526020017f546f6b656e4465616c6572000000000000000000000000000000000000000000815250600190816200004a91906200050c565b50735fbdb2315678afecb367f032d93f642f64180aa3600260006101000a81548173ffffffffffffffffffffffffffffffffffffffff021916908373ffffffffffffffffffffffffffffffffffffffff160217905550600260009054906101000a900473ffffffffffffffffffffffffffffffffffffffff16600360006101000a81548173ffffffffffffffffffffffffffffffffffffffff021916908373ffffffffffffffffffffffffffffffffffffffff16021790555060006004556000600555600060065560006007556000600c556003600d556064600e55670de0b6b3a76400006010553480156200013f57600080fd5b5033600073ffffffffffffffffffffffffffffffffffffffff168173ffffffffffffffffffffffffffffffffffffffff1603620001b65760006040517f1e4fbdf7000000000000000000000000000000000000000000000000000000008152600401620001ad919062000638565b60405180910390fd5b620001c781620001ce60201b60201c565b5062000655565b60008060009054906101000a900473ffffffffffffffffffffffffffffffffffffffff169050816000806101000a81548173ffffffffffffffffffffffffffffffffffffffff021916908373ffffffffffffffffffffffffffffffffffffffff1602179055508173ffffffffffffffffffffffffffffffffffffffff168173ffffffffffffffffffffffffffffffffffffffff167f8be0079c531659141344cd1fd0a4f28419497f9722a3daafe3b4186f6b6457e060405160405180910390a35050565b600081519050919050565b7f4e487b7100000000000000000000000000000000000000000000000000000000600052604160045260246000fd5b7f4e487b7100000000000000000000000000000000000000000000000000000000600052602260045260246000fd5b600060028204905060018216806200031457607f821691505b6020821081036200032a5762000329620002cc565b5b50919050565b60008190508160005260206000209050919050565b60006020601f8301049050919050565b600082821b905092915050565b600060088302620003947fffffffffffffffffffffffffffffffffffffffffffffffffffffffffffffffff8262000355565b620003a0868362000355565b95508019841693508086168417925050509392505050565b6000819050919050565b6000819050919050565b6000620003ed620003e7620003e184620003b8565b620003c2565b620003b8565b9050919050565b6000819050919050565b6200040983620003cc565b620004216200041882620003f4565b84845462000362565b825550505050565b600090565b6200043862000429565b62000445818484620003fe565b505050565b5b818110156200046d57620004616000826200042e565b6001810190506200044b565b5050565b601f821115620004bc57620004868162000330565b620004918462000345565b81016020851015620004a1578190505b620004b9620004b08562000345565b8301826200044a565b50505b505050565b600082821c905092915050565b6000620004e160001984600802620004c1565b1980831691505092915050565b6000620004fc8383620004ce565b9150826002028217905092915050565b620005178262000292565b67ffffffffffffffff8111156200053357620005326200029d565b5b6200053f8254620002fb565b6200054c82828562000471565b600060209050601f8311600181146200058457600084156200056f578287015190505b6200057b8582620004ee565b865550620005eb565b601f198416620005948662000330565b60005b82811015620005be5784890151825560018201915060208501945060208101905062000597565b86831015620005de5784890151620005da601f891682620004ce565b8355505b6001600288020188555050505b505050505050565b600073ffffffffffffffffffffffffffffffffffffffff82169050919050565b60006200062082620005f3565b9050919050565b620006328162000613565b82525050565b60006020820190506200064f600083018462000627565b92915050565b612bdc80620006656000396000f3fe6080604052600436106100fe5760003560e01c80639d7de6b311610095578063d4cadf6811610064578063d4cadf68146102ac578063e5525f63146102d8578063f2fde38b14610301578063f694f7d11461032a578063fc0c546a14610355576100fe565b80639d7de6b31461021a578063a22280a614610236578063a594f3e814610252578063c00007b01461026e576100fe565b8063715018a6116100d1578063715018a61461019057806380e1a785146101a75780638259e6a0146101d35780638da5cb5b146101ef576100fe565b80630902f1ac146101035780630b50cd3e1461012f5780632eab28411461015857806351c6590a14610174575b600080fd5b34801561010f57600080fd5b50610118610380565b604051610126929190611e34565b60405180910390f35b34801561013b57600080fd5b5061015660048036038101906101519190611e8e565b610391565b005b610172600480360381019061016d9190611ece565b61066f565b005b61018e60048036038101906101899190611ece565b61083e565b005b34801561019c57600080fd5b506101a5610abc565b005b3480156101b357600080fd5b506101bc610ad0565b6040516101ca929190611e34565b60405180910390f35b6101ed60048036038101906101e89190611ece565b610b1e565b005b3480156101fb57600080fd5b50610204610fa4565b6040516102119190611f3c565b60405180910390f35b610234600480360381019061022f9190611e8e565b610fcd565b005b610250600480360381019061024b9190611e8e565b6112b9565b005b61026c60048036038101906102679190611ece565b6115bb565b005b34801561027a57600080fd5b5061029560048036038101906102909190611f83565b611653565b6040516102a3929190611e34565b60405180910390f35b3480156102b857600080fd5b506102c1611889565b6040516102cf929190611e34565b60405180910390f35b3480156102e457600080fd5b506102ff60048036038101906102fa9190611fd5565b61189a565b005b34801561030d57600080fd5b5061032860048036038101906103239190611f83565b611b8e565b005b34801561033657600080fd5b5061033f611c14565b60405161034c91906120b8565b60405180910390f35b34801561036157600080fd5b5061036a611ca2565b6040516103779190612139565b60405180910390f35b600080600554600454915091509091565b60005b600b8054905081101561066a578260096000600b84815481106103ba576103b9612154565b5b9060005260206000200160009054906101000a900473ffffffffffffffffffffffffffffffffffffffff1673ffffffffffffffffffffffffffffffffffffffff1673ffffffffffffffffffffffffffffffffffffffff168152602001908152602001600020600082825461042e91906121b2565b9250508190555081600a6000600b848154811061044e5761044d612154565b5b9060005260206000200160009054906101000a900473ffffffffffffffffffffffffffffffffffffffff1673ffffffffffffffffffffffffffffffffffffffff1673ffffffffffffffffffffffffffffffffffffffff16815260200190815260200160002060008282546104c291906121b2565b92505081905550600c54600e546104d991906121e6565b600d5460086000600b85815481106104f4576104f3612154565b5b9060005260206000200160009054906101000a900473ffffffffffffffffffffffffffffffffffffffff1673ffffffffffffffffffffffffffffffffffffffff1673ffffffffffffffffffffffffffffffffffffffff168152602001908152602001600020548561056591906121e6565b61056f91906121e6565b6105799190612257565b6006600082825461058a91906121b2565b92505081905550600c54600e546105a191906121e6565b600d5460086000600b85815481106105bc576105bb612154565b5b9060005260206000200160009054906101000a900473ffffffffffffffffffffffffffffffffffffffff1673ffffffffffffffffffffffffffffffffffffffff1673ffffffffffffffffffffffffffffffffffffffff168152602001908152602001600020548461062d91906121e6565b61063791906121e6565b6106419190612257565b6007600082825461065291906121b2565b925050819055508061066390612288565b9050610394565b505050565b60003460055461067f91906121b2565b600f5461068c9190612257565b60045461069991906122d0565b905080600454116106df576040517f08c379a00000000000000000000000000000000000000000000000000000000081526004016106d690612350565b60405180910390fd5b81811015610722576040517f08c379a0000000000000000000000000000000000000000000000000000000008152600401610719906123bc565b60405180910390fd5b61072c8134610391565b346005600082825461073e91906121b2565b92505081905550600360009054906101000a900473ffffffffffffffffffffffffffffffffffffffff1673ffffffffffffffffffffffffffffffffffffffff1663a9059cbb33600e54600d548561079591906121e6565b61079f9190612257565b846107aa91906122d0565b6040518363ffffffff1660e01b81526004016107c79291906123dc565b6020604051808303816000875af11580156107e6573d6000803e3d6000fd5b505050506040513d601f19601f8201168201806040525081019061080a919061243d565b50806004600082825461081d91906122d0565b9250508190555060055460045461083491906121e6565b600f819055505050565b60003411610881576040517f08c379a0000000000000000000000000000000000000000000000000000000008152600401610878906124b6565b60405180910390fd5b60006005543460045461089491906121e6565b61089e9190612257565b9050600360009054906101000a900473ffffffffffffffffffffffffffffffffffffffff1673ffffffffffffffffffffffffffffffffffffffff166370a08231336040518263ffffffff1660e01b81526004016108fb9190611f3c565b602060405180830381865afa158015610918573d6000803e3d6000fd5b505050506040513d601f19601f8201168201806040525081019061093c91906124eb565b81111561097e576040517f08c379a00000000000000000000000000000000000000000000000000000000081526004016109759061258a565b60405180910390fd5b818110156109c1576040517f08c379a00000000000000000000000000000000000000000000000000000000081526004016109b8906123bc565b60405180910390fd5b600360009054906101000a900473ffffffffffffffffffffffffffffffffffffffff1673ffffffffffffffffffffffffffffffffffffffff166323b872dd3330846040518463ffffffff1660e01b8152600401610a20939291906125aa565b6020604051808303816000875af1158015610a3f573d6000803e3d6000fd5b505050506040513d601f19601f82011682018060405250810190610a63919061243d565b508060046000828254610a7691906121b2565b925050819055503460056000828254610a8f91906121b2565b92505081905550600554600454610aa691906121e6565b600f81905550610ab83382600061189a565b5050565b610ac4611cc8565b610ace6000611d4f565b565b600080600860003373ffffffffffffffffffffffffffffffffffffffff1673ffffffffffffffffffffffffffffffffffffffff16815260200190815260200160002054600c54915091509091565b610b26611cc8565b600060045414610b6b576040517f08c379a0000000000000000000000000000000000000000000000000000000008152600401610b629061262d565b60405180910390fd5b600060055414610bb0576040517f08c379a0000000000000000000000000000000000000000000000000000000008152600401610ba790612699565b60405180910390fd5b6012600360009054906101000a900473ffffffffffffffffffffffffffffffffffffffff1673ffffffffffffffffffffffffffffffffffffffff1663313ce5676040518163ffffffff1660e01b8152600401602060405180830381865afa158015610c1f573d6000803e3d6000fd5b505050506040513d601f19601f82011682018060405250810190610c4391906126f2565b60ff1614610c86576040517f08c379a0000000000000000000000000000000000000000000000000000000008152600401610c7d9061276b565b60405180910390fd5b60003411610cc9576040517f08c379a0000000000000000000000000000000000000000000000000000000008152600401610cc0906127d7565b60405180910390fd5b6000600360009054906101000a900473ffffffffffffffffffffffffffffffffffffffff1673ffffffffffffffffffffffffffffffffffffffff166370a08231336040518263ffffffff1660e01b8152600401610d269190611f3c565b602060405180830381865afa158015610d43573d6000803e3d6000fd5b505050506040513d601f19601f82011682018060405250810190610d6791906124eb565b905080821115610dac576040517f08c379a0000000000000000000000000000000000000000000000000000000008152600401610da390612869565b60405180910390fd5b60008211610def576040517f08c379a0000000000000000000000000000000000000000000000000000000008152600401610de6906128d5565b60405180910390fd5b600360009054906101000a900473ffffffffffffffffffffffffffffffffffffffff1673ffffffffffffffffffffffffffffffffffffffff166323b872dd3330856040518463ffffffff1660e01b8152600401610e4e939291906125aa565b6020604051808303816000875af1158015610e6d573d6000803e3d6000fd5b505050506040513d601f19601f82011682018060405250810190610e91919061243d565b50600360009054906101000a900473ffffffffffffffffffffffffffffffffffffffff1673ffffffffffffffffffffffffffffffffffffffff166370a08231306040518263ffffffff1660e01b8152600401610eed9190611f3c565b602060405180830381865afa158015610f0a573d6000803e3d6000fd5b505050506040513d601f19601f82011682018060405250810190610f2e91906124eb565b60048190555034600581905550600554600454610f4b91906121e6565b600f81905550620f4240600c819055506064600860003373ffffffffffffffffffffffffffffffffffffffff1673ffffffffffffffffffffffffffffffffffffffff168152602001908152602001600020819055505050565b60008060009054906101000a900473ffffffffffffffffffffffffffffffffffffffff16905090565b600060055483600454610fe091906121e6565b610fea9190612257565b905082600554118015610ffe575080600454115b61103d576040517f08c379a000000000000000000000000000000000000000000000000000000000815260040161103490612967565b60405180910390fd5b80600c5461104b91906121e6565b600454600860003373ffffffffffffffffffffffffffffffffffffffff1673ffffffffffffffffffffffffffffffffffffffff1681526020019081526020016000205461109891906121e6565b10156110d9576040517f08c379a00000000000000000000000000000000000000000000000000000000081526004016110d0906129f9565b60405180910390fd5b8181101561111c576040517f08c379a0000000000000000000000000000000000000000000000000000000008152600401611113906123bc565b60405180910390fd5b60008061112833611653565b91509150600360009054906101000a900473ffffffffffffffffffffffffffffffffffffffff1673ffffffffffffffffffffffffffffffffffffffff1663a9059cbb33848661117791906121b2565b6040518363ffffffff1660e01b81526004016111949291906123dc565b6020604051808303816000875af11580156111b3573d6000803e3d6000fd5b505050506040513d601f19601f820116820180604052508101906111d7919061243d565b5082600460008282546111ea91906122d0565b925050819055503373ffffffffffffffffffffffffffffffffffffffff166108fc828761121791906121b2565b9081150290604051600060405180830381858888f19350505050158015611242573d6000803e3d6000fd5b50846005600082825461125591906122d0565b9250508190555060055460045461126c91906121e6565b600f819055503073ffffffffffffffffffffffffffffffffffffffff163373ffffffffffffffffffffffffffffffffffffffff16146112b2576112b13384600161189a565b5b5050505050565b600360009054906101000a900473ffffffffffffffffffffffffffffffffffffffff1673ffffffffffffffffffffffffffffffffffffffff166370a08231336040518263ffffffff1660e01b81526004016113149190611f3c565b602060405180830381865afa158015611331573d6000803e3d6000fd5b505050506040513d601f19601f8201168201806040525081019061135591906124eb565b821115611397576040517f08c379a000000000000000000000000000000000000000000000000000000000815260040161138e90612a8b565b60405180910390fd5b6000826004546113a791906121b2565b600f546113b49190612257565b6005546113c191906122d0565b9050806005541180156113d357508047115b611412576040517f08c379a000000000000000000000000000000000000000000000000000000000815260040161140990612af7565b60405180910390fd5b81811015611455576040517f08c379a000000000000000000000000000000000000000000000000000000000815260040161144c906123bc565b60405180910390fd5b61145f8382610391565b826004600082825461147191906121b2565b92505081905550600360009054906101000a900473ffffffffffffffffffffffffffffffffffffffff1673ffffffffffffffffffffffffffffffffffffffff166323b872dd3330866040518463ffffffff1660e01b81526004016114d7939291906125aa565b6020604051808303816000875af11580156114f6573d6000803e3d6000fd5b505050506040513d601f19601f8201168201806040525081019061151a919061243d565b503373ffffffffffffffffffffffffffffffffffffffff166108fc600e54600d548461154691906121e6565b6115509190612257565b8361155b91906122d0565b9081150290604051600060405180830381858888f19350505050158015611586573d6000803e3d6000fd5b50806005600082825461159991906122d0565b925050819055506005546004546115b091906121e6565b600f81905550505050565b6000600c54600554600860003373ffffffffffffffffffffffffffffffffffffffff1673ffffffffffffffffffffffffffffffffffffffff1681526020019081526020016000205461160d91906121e6565b6116179190612257565b905060006005546004548361162c91906121e6565b6116369190612257565b90506116428284610fcd565b61164e3382600261189a565b505050565b6000806000600c54600e5461166891906121e6565b600d54600860008773ffffffffffffffffffffffffffffffffffffffff1673ffffffffffffffffffffffffffffffffffffffff16815260200190815260200160002054600960008873ffffffffffffffffffffffffffffffffffffffff1673ffffffffffffffffffffffffffffffffffffffff168152602001908152602001600020546116f591906121e6565b6116ff91906121e6565b6117099190612257565b90506000600c54600e5461171d91906121e6565b600d54600860008873ffffffffffffffffffffffffffffffffffffffff1673ffffffffffffffffffffffffffffffffffffffff16815260200190815260200160002054600a60008973ffffffffffffffffffffffffffffffffffffffff1673ffffffffffffffffffffffffffffffffffffffff168152602001908152602001600020546117aa91906121e6565b6117b491906121e6565b6117be9190612257565b90506000600960008773ffffffffffffffffffffffffffffffffffffffff1673ffffffffffffffffffffffffffffffffffffffff168152602001908152602001600020819055506000600a60008773ffffffffffffffffffffffffffffffffffffffff1673ffffffffffffffffffffffffffffffffffffffff16815260200190815260200160002081905550816006600082825461185c91906122d0565b92505081905550806007600082825461187591906122d0565b925050819055508181935093505050915091565b600080600d54600e54915091509091565b6002808111156118ad576118ac612b17565b5b8160028111156118c0576118bf612b17565b5b0361193e576000600860008573ffffffffffffffffffffffffffffffffffffffff1673ffffffffffffffffffffffffffffffffffffffff1681526020019081526020016000208190555060045482600c5461191b91906121e6565b6119259190612257565b600c600082825461193691906122d0565b925050819055505b6000600281111561195257611951612b17565b5b81600281111561196557611964612b17565b5b03611ab9576000600860008573ffffffffffffffffffffffffffffffffffffffff1673ffffffffffffffffffffffffffffffffffffffff1681526020019081526020016000205403611a1557600b839080600181540180825580915050600190039060005260206000200160009091909190916101000a81548173ffffffffffffffffffffffffffffffffffffffff021916908373ffffffffffffffffffffffffffffffffffffffff1602179055505b60045482600c54611a2691906121e6565b611a309190612257565b600860008573ffffffffffffffffffffffffffffffffffffffff1673ffffffffffffffffffffffffffffffffffffffff1681526020019081526020016000206000828254611a7e91906121b2565b9250508190555060045482600c54611a9691906121e6565b611aa09190612257565b600c6000828254611ab191906121b2565b925050819055505b60016002811115611acd57611acc612b17565b5b816002811115611ae057611adf612b17565b5b03611b895760045482600c54611af691906121e6565b611b009190612257565b600860008573ffffffffffffffffffffffffffffffffffffffff1673ffffffffffffffffffffffffffffffffffffffff1681526020019081526020016000206000828254611b4e91906122d0565b9250508190555060045482600c54611b6691906121e6565b611b709190612257565b600c6000828254611b8191906122d0565b925050819055505b505050565b611b96611cc8565b600073ffffffffffffffffffffffffffffffffffffffff168173ffffffffffffffffffffffffffffffffffffffff1603611c085760006040517f1e4fbdf7000000000000000000000000000000000000000000000000000000008152600401611bff9190611f3c565b60405180910390fd5b611c1181611d4f565b50565b60018054611c2190612b75565b80601f0160208091040260200160405190810160405280929190818152602001828054611c4d90612b75565b8015611c9a5780601f10611c6f57610100808354040283529160200191611c9a565b820191906000526020600020905b815481529060010190602001808311611c7d57829003601f168201915b505050505081565b600360009054906101000a900473ffffffffffffffffffffffffffffffffffffffff1681565b611cd0611e13565b73ffffffffffffffffffffffffffffffffffffffff16611cee610fa4565b73ffffffffffffffffffffffffffffffffffffffff1614611d4d57611d11611e13565b6040517f118cdaa7000000000000000000000000000000000000000000000000000000008152600401611d449190611f3c565b60405180910390fd5b565b60008060009054906101000a900473ffffffffffffffffffffffffffffffffffffffff169050816000806101000a81548173ffffffffffffffffffffffffffffffffffffffff021916908373ffffffffffffffffffffffffffffffffffffffff1602179055508173ffffffffffffffffffffffffffffffffffffffff168173ffffffffffffffffffffffffffffffffffffffff167f8be0079c531659141344cd1fd0a4f28419497f9722a3daafe3b4186f6b6457e060405160405180910390a35050565b600033905090565b6000819050919050565b611e2e81611e1b565b82525050565b6000604082019050611e496000830185611e25565b611e566020830184611e25565b9392505050565b600080fd5b611e6b81611e1b565b8114611e7657600080fd5b50565b600081359050611e8881611e62565b92915050565b60008060408385031215611ea557611ea4611e5d565b5b6000611eb385828601611e79565b9250506020611ec485828601611e79565b9150509250929050565b600060208284031215611ee457611ee3611e5d565b5b6000611ef284828501611e79565b91505092915050565b600073ffffffffffffffffffffffffffffffffffffffff82169050919050565b6000611f2682611efb565b9050919050565b611f3681611f1b565b82525050565b6000602082019050611f516000830184611f2d565b92915050565b611f6081611f1b565b8114611f6b57600080fd5b50565b600081359050611f7d81611f57565b92915050565b600060208284031215611f9957611f98611e5d565b5b6000611fa784828501611f6e565b91505092915050565b60038110611fbd57600080fd5b50565b600081359050611fcf81611fb0565b92915050565b600080600060608486031215611fee57611fed611e5d565b5b6000611ffc86828701611f6e565b935050602061200d86828701611e79565b925050604061201e86828701611fc0565b9150509250925092565b600081519050919050565b600082825260208201905092915050565b60005b83811015612062578082015181840152602081019050612047565b60008484015250505050565b6000601f19601f8301169050919050565b600061208a82612028565b6120948185612033565b93506120a4818560208601612044565b6120ad8161206e565b840191505092915050565b600060208201905081810360008301526120d2818461207f565b905092915050565b6000819050919050565b60006120ff6120fa6120f584611efb565b6120da565b611efb565b9050919050565b6000612111826120e4565b9050919050565b600061212382612106565b9050919050565b61213381612118565b82525050565b600060208201905061214e600083018461212a565b92915050565b7f4e487b7100000000000000000000000000000000000000000000000000000000600052603260045260246000fd5b7f4e487b7100000000000000000000000000000000000000000000000000000000600052601160045260246000fd5b60006121bd82611e1b565b91506121c883611e1b565b92508282019050808211156121e0576121df612183565b5b92915050565b60006121f182611e1b565b91506121fc83611e1b565b925082820261220a81611e1b565b9150828204841483151761222157612220612183565b5b5092915050565b7f4e487b7100000000000000000000000000000000000000000000000000000000600052601260045260246000fd5b600061226282611e1b565b915061226d83611e1b565b92508261227d5761227c612228565b5b828204905092915050565b600061229382611e1b565b91507fffffffffffffffffffffffffffffffffffffffffffffffffffffffffffffffff82036122c5576122c4612183565b5b600182019050919050565b60006122db82611e1b565b91506122e683611e1b565b92508282039050818111156122fe576122fd612183565b5b92915050565b7f4e6f74206861766520656e6f75676820746f6b656e7320746f20737761700000600082015250565b600061233a601e83612033565b915061234582612304565b602082019050919050565b600060208201905081810360008301526123698161232d565b9050919050565b7f536c697070616765000000000000000000000000000000000000000000000000600082015250565b60006123a6600883612033565b91506123b182612370565b602082019050919050565b600060208201905081810360008301526123d581612399565b9050919050565b60006040820190506123f16000830185611f2d565b6123fe6020830184611e25565b9392505050565b60008115159050919050565b61241a81612405565b811461242557600080fd5b50565b60008151905061243781612411565b92915050565b60006020828403121561245357612452611e5d565b5b600061246184828501612428565b91505092915050565b7f4e6565642065746820746f20616464206c69717569646974792e000000000000600082015250565b60006124a0601a83612033565b91506124ab8261246a565b602082019050919050565b600060208201905081810360008301526124cf81612493565b9050919050565b6000815190506124e581611e62565b92915050565b60006020828403121561250157612500611e5d565b5b600061250f848285016124d6565b91505092915050565b7f4e6f74206861766520656e6f75676820746f6b656e7320746f20616464206c6960008201527f717569646974792e000000000000000000000000000000000000000000000000602082015250565b6000612574602883612033565b915061257f82612518565b604082019050919050565b600060208201905081810360008301526125a381612567565b9050919050565b60006060820190506125bf6000830186611f2d565b6125cc6020830185611f2d565b6125d96040830184611e25565b949350505050565b7f546f6b656e20726573657276657320776173206e6f7420300000000000000000600082015250565b6000612617601883612033565b9150612622826125e1565b602082019050919050565b600060208201905081810360008301526126468161260a565b9050919050565b7f45544820726573657276657320776173206e6f7420302e000000000000000000600082015250565b6000612683601783612033565b915061268e8261264d565b602082019050919050565b600060208201905081810360008301526126b281612676565b9050919050565b600060ff82169050919050565b6126cf816126b9565b81146126da57600080fd5b50565b6000815190506126ec816126c6565b92915050565b60006020828403121561270857612707611e5d565b5b6000612716848285016126dd565b91505092915050565b7f546f6b656e20646563696d616c206973206e6f74203138000000000000000000600082015250565b6000612755601783612033565b91506127608261271f565b602082019050919050565b6000602082019050818103600083015261278481612748565b9050919050565b7f4e6565642065746820746f2063726561746520706f6f6c2e0000000000000000600082015250565b60006127c1601883612033565b91506127cc8261278b565b602082019050919050565b600060208201905081810360008301526127f0816127b4565b9050919050565b7f4e6f74206861766520656e6f75676820746f6b656e7320746f2063726561746560008201527f2074686520706f6f6c0000000000000000000000000000000000000000000000602082015250565b6000612853602983612033565b915061285e826127f7565b604082019050919050565b6000602082019050818103600083015261288281612846565b9050919050565b7f4e65656420746f6b656e7320746f2063726561746520706f6f6c2e0000000000600082015250565b60006128bf601b83612033565b91506128ca82612889565b602082019050919050565b600060208201905081810360008301526128ee816128b2565b9050919050565b7f4e6f74206861766520656e6f75676820746f6b656e732f65746820746f20726560008201527f6d6f7665206c6971756964697479000000000000000000000000000000000000602082015250565b6000612951602e83612033565b915061295c826128f5565b604082019050919050565b6000602082019050818103600083015261298081612944565b9050919050565b7f4e6f742070726f7669646520656e6f756768206c697175696469747920746f2060008201527f72656d6f76650000000000000000000000000000000000000000000000000000602082015250565b60006129e3602683612033565b91506129ee82612987565b604082019050919050565b60006020820190508181036000830152612a12816129d6565b9050919050565b7f53656e64657220646f65736e2774206861766520656e6f75676820746f6b656e60008201527f20746f2073776170000000000000000000000000000000000000000000000000602082015250565b6000612a75602883612033565b9150612a8082612a19565b604082019050919050565b60006020820190508181036000830152612aa481612a68565b9050919050565b7f4e6f74206861766520656e6f7567682045544820746f20737761700000000000600082015250565b6000612ae1601b83612033565b9150612aec82612aab565b602082019050919050565b60006020820190508181036000830152612b1081612ad4565b9050919050565b7f4e487b7100000000000000000000000000000000000000000000000000000000600052602160045260246000fd5b7f4e487b7100000000000000000000000000000000000000000000000000000000600052602260045260246000fd5b60006002820490506001821680612b8d57607f821691505b602082108103612ba057612b9f612b46565b5b5091905056fea2646970667358221220b5978b5c59b4a0351534d019cb958cd7750efc56890f01c45f34bcc1bc49f42064736f6c63430008140033",
  "linkReferences": {},
  "deployedLinkReferences": {}
}