{
  "_format": "hh-sol-artifact-1",
  "contractName": "TokenExchange",
  "sourceName": "contracts/exchange.sol",
  "abi": [
    {
      "inputs": [],
      "stateMutability": "nonpayable",
      "type": "constructor"
    },
    {
      "inputs": [
        {
          "internalType": "address",
          "name": "owner",
          "type": "address"
        }
      ],
      "name": "OwnableInvalidOwner",
      "type": "error"
    },
    {
      "inputs": [
        {
          "internalType": "address",
          "name": "account",
          "type": "address"
        }
      ],
      "name": "OwnableUnauthorizedAccount",
      "type": "error"
    },
    {
      "anonymous": false,
      "inputs": [
        {
          "indexed": true,
          "internalType": "address",
          "name": "previousOwner",
          "type": "address"
        },
        {
          "indexed": true,
          "internalType": "address",
          "name": "newOwner",
          "type": "address"
        }
      ],
      "name": "OwnershipTransferred",
      "type": "event"
    },
    {
      "inputs": [],
      "name": "addLiquidity",
      "outputs": [],
      "stateMutability": "payable",
      "type": "function"
    },
    {
      "inputs": [
        {
          "internalType": "uint256",
          "name": "amountTokens",
          "type": "uint256"
        }
      ],
      "name": "createPool",
      "outputs": [],
      "stateMutability": "payable",
      "type": "function"
    },
    {
      "inputs": [],
      "name": "exchange_name",
      "outputs": [
        {
          "internalType": "string",
          "name": "",
          "type": "string"
        }
      ],
      "stateMutability": "view",
      "type": "function"
    },
    {
      "inputs": [],
      "name": "getLps",
      "outputs": [
        {
          "internalType": "uint256",
          "name": "",
          "type": "uint256"
        },
        {
          "internalType": "uint256",
          "name": "",
          "type": "uint256"
        }
      ],
      "stateMutability": "view",
      "type": "function"
    },
    {
      "inputs": [],
      "name": "getReserves",
      "outputs": [
        {
          "internalType": "uint256",
          "name": "",
          "type": "uint256"
        },
        {
          "internalType": "uint256",
          "name": "",
          "type": "uint256"
        }
      ],
      "stateMutability": "view",
      "type": "function"
    },
    {
      "inputs": [
        {
          "internalType": "address",
          "name": "_address",
          "type": "address"
        }
      ],
      "name": "getReward",
      "outputs": [
        {
          "internalType": "uint256",
          "name": "",
          "type": "uint256"
        },
        {
          "internalType": "uint256",
          "name": "",
          "type": "uint256"
        }
      ],
      "stateMutability": "nonpayable",
      "type": "function"
    },
    {
      "inputs": [],
      "name": "getSwapFee",
      "outputs": [
        {
          "internalType": "uint256",
          "name": "",
          "type": "uint256"
        },
        {
          "internalType": "uint256",
          "name": "",
          "type": "uint256"
        }
      ],
      "stateMutability": "view",
      "type": "function"
    },
    {
      "inputs": [],
      "name": "owner",
      "outputs": [
        {
          "internalType": "address",
          "name": "",
          "type": "address"
        }
      ],
      "stateMutability": "view",
      "type": "function"
    },
    {
      "inputs": [
        {
          "internalType": "uint256",
          "name": "minTokenReceive",
          "type": "uint256"
        }
      ],
      "name": "removeAllLiquidity",
      "outputs": [],
      "stateMutability": "payable",
      "type": "function"
    },
    {
      "inputs": [
        {
          "internalType": "uint256",
          "name": "amountETH",
          "type": "uint256"
        },
        {
          "internalType": "uint256",
          "name": "minTokenReceive",
          "type": "uint256"
        }
      ],
      "name": "removeLiquidity",
      "outputs": [],
      "stateMutability": "payable",
      "type": "function"
    },
    {
      "inputs": [],
      "name": "renounceOwnership",
      "outputs": [],
      "stateMutability": "nonpayable",
      "type": "function"
    },
    {
      "inputs": [
        {
          "internalType": "uint256",
          "name": "minTokenReceive",
          "type": "uint256"
        }
      ],
      "name": "swapETHForTokens",
      "outputs": [],
      "stateMutability": "payable",
      "type": "function"
    },
    {
      "inputs": [
        {
          "internalType": "uint256",
          "name": "amountTokens",
          "type": "uint256"
        },
        {
          "internalType": "uint256",
          "name": "minETHReceive",
          "type": "uint256"
        }
      ],
      "name": "swapTokensForETH",
      "outputs": [],
      "stateMutability": "payable",
      "type": "function"
    },
    {
      "inputs": [],
      "name": "token",
      "outputs": [
        {
          "internalType": "contract Token",
          "name": "",
          "type": "address"
        }
      ],
      "stateMutability": "view",
      "type": "function"
    },
    {
      "inputs": [
        {
          "internalType": "address",
          "name": "newOwner",
          "type": "address"
        }
      ],
      "name": "transferOwnership",
      "outputs": [],
      "stateMutability": "nonpayable",
      "type": "function"
    },
    {
      "inputs": [
        {
          "internalType": "address",
          "name": "_address",
          "type": "address"
        },
        {
          "internalType": "uint256",
          "name": "token_transfer",
          "type": "uint256"
        },
        {
          "internalType": "uint8",
          "name": "option",
          "type": "uint8"
        }
      ],
      "name": "updateLps",
      "outputs": [],
      "stateMutability": "nonpayable",
      "type": "function"
    },
    {
      "inputs": [
        {
          "internalType": "uint256",
          "name": "amountTokens",
          "type": "uint256"
        },
        {
          "internalType": "uint256",
          "name": "amountETH",
          "type": "uint256"
        }
      ],
      "name": "updateReward",
      "outputs": [],
      "stateMutability": "nonpayable",
      "type": "function"
    }
  ],
  "bytecode": "0x60806040526040518060400160405280600b81526020017f546f6b656e4465616c6572000000000000000000000000000000000000000000815250600190816200004a91906200050c565b50735fbdb2315678afecb367f032d93f642f64180aa3600260006101000a81548173ffffffffffffffffffffffffffffffffffffffff021916908373ffffffffffffffffffffffffffffffffffffffff160217905550600260009054906101000a900473ffffffffffffffffffffffffffffffffffffffff16600360006101000a81548173ffffffffffffffffffffffffffffffffffffffff021916908373ffffffffffffffffffffffffffffffffffffffff16021790555060006004556000600555600060065560006007556000600c556003600d556064600e55670de0b6b3a76400006010553480156200013f57600080fd5b5033600073ffffffffffffffffffffffffffffffffffffffff168173ffffffffffffffffffffffffffffffffffffffff1603620001b65760006040517f1e4fbdf7000000000000000000000000000000000000000000000000000000008152600401620001ad919062000638565b60405180910390fd5b620001c781620001ce60201b60201c565b5062000655565b60008060009054906101000a900473ffffffffffffffffffffffffffffffffffffffff169050816000806101000a81548173ffffffffffffffffffffffffffffffffffffffff021916908373ffffffffffffffffffffffffffffffffffffffff1602179055508173ffffffffffffffffffffffffffffffffffffffff168173ffffffffffffffffffffffffffffffffffffffff167f8be0079c531659141344cd1fd0a4f28419497f9722a3daafe3b4186f6b6457e060405160405180910390a35050565b600081519050919050565b7f4e487b7100000000000000000000000000000000000000000000000000000000600052604160045260246000fd5b7f4e487b7100000000000000000000000000000000000000000000000000000000600052602260045260246000fd5b600060028204905060018216806200031457607f821691505b6020821081036200032a5762000329620002cc565b5b50919050565b60008190508160005260206000209050919050565b60006020601f8301049050919050565b600082821b905092915050565b600060088302620003947fffffffffffffffffffffffffffffffffffffffffffffffffffffffffffffffff8262000355565b620003a0868362000355565b95508019841693508086168417925050509392505050565b6000819050919050565b6000819050919050565b6000620003ed620003e7620003e184620003b8565b620003c2565b620003b8565b9050919050565b6000819050919050565b6200040983620003cc565b620004216200041882620003f4565b84845462000362565b825550505050565b600090565b6200043862000429565b62000445818484620003fe565b505050565b5b818110156200046d57620004616000826200042e565b6001810190506200044b565b5050565b601f821115620004bc57620004868162000330565b620004918462000345565b81016020851015620004a1578190505b620004b9620004b08562000345565b8301826200044a565b50505b505050565b600082821c905092915050565b6000620004e160001984600802620004c1565b1980831691505092915050565b6000620004fc8383620004ce565b9150826002028217905092915050565b620005178262000292565b67ffffffffffffffff8111156200053357620005326200029d565b5b6200053f8254620002fb565b6200054c82828562000471565b600060209050601f8311600181146200058457600084156200056f578287015190505b6200057b8582620004ee565b865550620005eb565b601f198416620005948662000330565b60005b82811015620005be5784890151825560018201915060208501945060208101905062000597565b86831015620005de5784890151620005da601f891682620004ce565b8355505b6001600288020188555050505b505050505050565b600073ffffffffffffffffffffffffffffffffffffffff82169050919050565b60006200062082620005f3565b9050919050565b620006328162000613565b82525050565b60006020820190506200064f600083018462000627565b92915050565b612f4680620006656000396000f3fe6080604052600436106100fe5760003560e01c8063a22280a611610095578063e5525f6311610064578063e5525f63146102bc578063e8078d94146102e5578063f2fde38b146102ef578063f694f7d114610318578063fc0c546a14610343576100fe565b8063a22280a61461021a578063a594f3e814610236578063c00007b014610252578063d4cadf6814610290576100fe565b806380e1a785116100d157806380e1a7851461018b5780638259e6a0146101b75780638da5cb5b146101d35780639d7de6b3146101fe576100fe565b80630902f1ac146101035780630b50cd3e1461012f5780632eab284114610158578063715018a614610174575b600080fd5b34801561010f57600080fd5b5061011861036e565b60405161012692919061221f565b60405180910390f35b34801561013b57600080fd5b5061015660048036038101906101519190612279565b61037f565b005b610172600480360381019061016d91906122b9565b61065d565b005b34801561018057600080fd5b50610189610938565b005b34801561019757600080fd5b506101a061094c565b6040516101ae92919061221f565b60405180910390f35b6101d160048036038101906101cc91906122b9565b61099a565b005b3480156101df57600080fd5b506101e8610d4a565b6040516101f59190612327565b60405180910390f35b61021860048036038101906102139190612279565b610d73565b005b610234600480360381019061022f9190612279565b61111d565b005b610250600480360381019061024b91906122b9565b61141f565b005b34801561025e57600080fd5b506102796004803603810190610274919061236e565b611866565b60405161028792919061221f565b60405180910390f35b34801561029c57600080fd5b506102a5611a9c565b6040516102b392919061221f565b60405180910390f35b3480156102c857600080fd5b506102e360048036038101906102de91906123d4565b611aad565b005b6102ed611d3f565b005b3480156102fb57600080fd5b506103166004803603810190610311919061236e565b611f79565b005b34801561032457600080fd5b5061032d611fff565b60405161033a91906124b7565b60405180910390f35b34801561034f57600080fd5b5061035861208d565b6040516103659190612538565b60405180910390f35b600080600554600454915091509091565b60005b600b80549050811015610658578260096000600b84815481106103a8576103a7612553565b5b9060005260206000200160009054906101000a900473ffffffffffffffffffffffffffffffffffffffff1673ffffffffffffffffffffffffffffffffffffffff1673ffffffffffffffffffffffffffffffffffffffff168152602001908152602001600020600082825461041c91906125b1565b9250508190555081600a6000600b848154811061043c5761043b612553565b5b9060005260206000200160009054906101000a900473ffffffffffffffffffffffffffffffffffffffff1673ffffffffffffffffffffffffffffffffffffffff1673ffffffffffffffffffffffffffffffffffffffff16815260200190815260200160002060008282546104b091906125b1565b92505081905550600c54600e546104c791906125e5565b600d5460086000600b85815481106104e2576104e1612553565b5b9060005260206000200160009054906101000a900473ffffffffffffffffffffffffffffffffffffffff1673ffffffffffffffffffffffffffffffffffffffff1673ffffffffffffffffffffffffffffffffffffffff168152602001908152602001600020548561055391906125e5565b61055d91906125e5565b6105679190612656565b6006600082825461057891906125b1565b92505081905550600c54600e5461058f91906125e5565b600d5460086000600b85815481106105aa576105a9612553565b5b9060005260206000200160009054906101000a900473ffffffffffffffffffffffffffffffffffffffff1673ffffffffffffffffffffffffffffffffffffffff1673ffffffffffffffffffffffffffffffffffffffff168152602001908152602001600020548461061b91906125e5565b61062591906125e5565b61062f9190612656565b6007600082825461064091906125b1565b925050819055508061065190612687565b9050610382565b505050565b60003460055461066d91906125b1565b600f5461067a9190612656565b60045461068791906126cf565b905080600454116106cd576040517f08c379a00000000000000000000000000000000000000000000000000000000081526004016106c49061274f565b60405180910390fd5b81811015610710576040517f08c379a0000000000000000000000000000000000000000000000000000000008152600401610707906127bb565b60405180910390fd5b61071a813461037f565b346005600082825461072c91906125b1565b925050819055506000600360009054906101000a900473ffffffffffffffffffffffffffffffffffffffff1673ffffffffffffffffffffffffffffffffffffffff1663095ea7b330600e54600d548661078591906125e5565b61078f9190612656565b8561079a91906126cf565b6040518363ffffffff1660e01b81526004016107b79291906127db565b6020604051808303816000875af11580156107d6573d6000803e3d6000fd5b505050506040513d601f19601f820116820180604052508101906107fa919061283c565b90508061083c576040517f08c379a0000000000000000000000000000000000000000000000000000000008152600401610833906128b5565b60405180910390fd5b600360009054906101000a900473ffffffffffffffffffffffffffffffffffffffff1673ffffffffffffffffffffffffffffffffffffffff166323b872dd3033600e54600d548761088d91906125e5565b6108979190612656565b866108a291906126cf565b6040518463ffffffff1660e01b81526004016108c0939291906128d5565b6020604051808303816000875af11580156108df573d6000803e3d6000fd5b505050506040513d601f19601f82011682018060405250810190610903919061283c565b50816004600082825461091691906126cf565b9250508190555060055460045461092d91906125e5565b600f81905550505050565b6109406120b3565b61094a600061213a565b565b600080600860003373ffffffffffffffffffffffffffffffffffffffff1673ffffffffffffffffffffffffffffffffffffffff16815260200190815260200160002054600c54915091509091565b6109a26120b3565b6000600454146109e7576040517f08c379a00000000000000000000000000000000000000000000000000000000081526004016109de90612958565b60405180910390fd5b600060055414610a2c576040517f08c379a0000000000000000000000000000000000000000000000000000000008152600401610a23906129c4565b60405180910390fd5b60003411610a6f576040517f08c379a0000000000000000000000000000000000000000000000000000000008152600401610a6690612a30565b60405180910390fd5b6000600360009054906101000a900473ffffffffffffffffffffffffffffffffffffffff1673ffffffffffffffffffffffffffffffffffffffff166370a08231336040518263ffffffff1660e01b8152600401610acc9190612327565b602060405180830381865afa158015610ae9573d6000803e3d6000fd5b505050506040513d601f19601f82011682018060405250810190610b0d9190612a65565b905080821115610b52576040517f08c379a0000000000000000000000000000000000000000000000000000000008152600401610b4990612b04565b60405180910390fd5b60008211610b95576040517f08c379a0000000000000000000000000000000000000000000000000000000008152600401610b8c90612b70565b60405180910390fd5b600360009054906101000a900473ffffffffffffffffffffffffffffffffffffffff1673ffffffffffffffffffffffffffffffffffffffff166323b872dd3330856040518463ffffffff1660e01b8152600401610bf4939291906128d5565b6020604051808303816000875af1158015610c13573d6000803e3d6000fd5b505050506040513d601f19601f82011682018060405250810190610c37919061283c565b50600360009054906101000a900473ffffffffffffffffffffffffffffffffffffffff1673ffffffffffffffffffffffffffffffffffffffff166370a08231306040518263ffffffff1660e01b8152600401610c939190612327565b602060405180830381865afa158015610cb0573d6000803e3d6000fd5b505050506040513d601f19601f82011682018060405250810190610cd49190612a65565b60048190555034600581905550600554600454610cf191906125e5565b600f81905550620f4240600c819055506064600860003373ffffffffffffffffffffffffffffffffffffffff1673ffffffffffffffffffffffffffffffffffffffff168152602001908152602001600020819055505050565b60008060009054906101000a900473ffffffffffffffffffffffffffffffffffffffff16905090565b600060055483600454610d8691906125e5565b610d909190612656565b905082600554118015610da4575080600454115b610de3576040517f08c379a0000000000000000000000000000000000000000000000000000000008152600401610dda90612c02565b60405180910390fd5b80600c54610df191906125e5565b600454600860003373ffffffffffffffffffffffffffffffffffffffff1673ffffffffffffffffffffffffffffffffffffffff16815260200190815260200160002054610e3e91906125e5565b1015610e7f576040517f08c379a0000000000000000000000000000000000000000000000000000000008152600401610e7690612c94565b60405180910390fd5b81811015610ec2576040517f08c379a0000000000000000000000000000000000000000000000000000000008152600401610eb9906127bb565b60405180910390fd5b600080610ece33611866565b915091506000600360009054906101000a900473ffffffffffffffffffffffffffffffffffffffff1673ffffffffffffffffffffffffffffffffffffffff1663095ea7b3308587610f1f91906125b1565b6040518363ffffffff1660e01b8152600401610f3c9291906127db565b6020604051808303816000875af1158015610f5b573d6000803e3d6000fd5b505050506040513d601f19601f82011682018060405250810190610f7f919061283c565b905080610fc1576040517f08c379a0000000000000000000000000000000000000000000000000000000008152600401610fb8906128b5565b60405180910390fd5b600360009054906101000a900473ffffffffffffffffffffffffffffffffffffffff1673ffffffffffffffffffffffffffffffffffffffff166323b872dd3033868861100d91906125b1565b6040518463ffffffff1660e01b815260040161102b939291906128d5565b6020604051808303816000875af115801561104a573d6000803e3d6000fd5b505050506040513d601f19601f8201168201806040525081019061106e919061283c565b50836004600082825461108191906126cf565b925050819055503373ffffffffffffffffffffffffffffffffffffffff166108fc83886110ae91906125b1565b9081150290604051600060405180830381858888f193505050501580156110d9573d6000803e3d6000fd5b5085600560008282546110ec91906126cf565b9250508190555060055460045461110391906125e5565b600f8190555061111533856002611aad565b505050505050565b600360009054906101000a900473ffffffffffffffffffffffffffffffffffffffff1673ffffffffffffffffffffffffffffffffffffffff166370a08231336040518263ffffffff1660e01b81526004016111789190612327565b602060405180830381865afa158015611195573d6000803e3d6000fd5b505050506040513d601f19601f820116820180604052508101906111b99190612a65565b8211156111fb576040517f08c379a00000000000000000000000000000000000000000000000000000000081526004016111f290612d26565b60405180910390fd5b60008260045461120b91906125b1565b600f546112189190612656565b60055461122591906126cf565b90508060055411801561123757508047115b611276576040517f08c379a000000000000000000000000000000000000000000000000000000000815260040161126d90612d92565b60405180910390fd5b818110156112b9576040517f08c379a00000000000000000000000000000000000000000000000000000000081526004016112b0906127bb565b60405180910390fd5b6112c3838261037f565b82600460008282546112d591906125b1565b92505081905550600360009054906101000a900473ffffffffffffffffffffffffffffffffffffffff1673ffffffffffffffffffffffffffffffffffffffff166323b872dd3330866040518463ffffffff1660e01b815260040161133b939291906128d5565b6020604051808303816000875af115801561135a573d6000803e3d6000fd5b505050506040513d601f19601f8201168201806040525081019061137e919061283c565b503373ffffffffffffffffffffffffffffffffffffffff166108fc600e54600d54846113aa91906125e5565b6113b49190612656565b836113bf91906126cf565b9081150290604051600060405180830381858888f193505050501580156113ea573d6000803e3d6000fd5b5080600560008282546113fd91906126cf565b9250508190555060055460045461141491906125e5565b600f81905550505050565b6000600c54600554600860003373ffffffffffffffffffffffffffffffffffffffff1673ffffffffffffffffffffffffffffffffffffffff1681526020019081526020016000205461147191906125e5565b61147b9190612656565b90506000600c54600454600860003373ffffffffffffffffffffffffffffffffffffffff1673ffffffffffffffffffffffffffffffffffffffff168152602001908152602001600020546114cf91906125e5565b6114d99190612656565b9050816005541180156114ed575080600454115b61152c576040517f08c379a000000000000000000000000000000000000000000000000000000000815260040161152390612c02565b60405180910390fd5b80600c5461153a91906125e5565b600454600860003373ffffffffffffffffffffffffffffffffffffffff1673ffffffffffffffffffffffffffffffffffffffff1681526020019081526020016000205461158791906125e5565b10156115c8576040517f08c379a00000000000000000000000000000000000000000000000000000000081526004016115bf90612c94565b60405180910390fd5b8281101561160b576040517f08c379a0000000000000000000000000000000000000000000000000000000008152600401611602906127bb565b60405180910390fd5b60008061161733611866565b915091506000600360009054906101000a900473ffffffffffffffffffffffffffffffffffffffff1673ffffffffffffffffffffffffffffffffffffffff1663095ea7b330858761166891906125b1565b6040518363ffffffff1660e01b81526004016116859291906127db565b6020604051808303816000875af11580156116a4573d6000803e3d6000fd5b505050506040513d601f19601f820116820180604052508101906116c8919061283c565b90508061170a576040517f08c379a0000000000000000000000000000000000000000000000000000000008152600401611701906128b5565b60405180910390fd5b600360009054906101000a900473ffffffffffffffffffffffffffffffffffffffff1673ffffffffffffffffffffffffffffffffffffffff166323b872dd3033868861175691906125b1565b6040518463ffffffff1660e01b8152600401611774939291906128d5565b6020604051808303816000875af1158015611793573d6000803e3d6000fd5b505050506040513d601f19601f820116820180604052508101906117b7919061283c565b5083600460008282546117ca91906126cf565b925050819055503373ffffffffffffffffffffffffffffffffffffffff166108fc83876117f791906125b1565b9081150290604051600060405180830381858888f19350505050158015611822573d6000803e3d6000fd5b50846005600082825461183591906126cf565b9250508190555060055460045461184c91906125e5565b600f8190555061185e33856000611aad565b505050505050565b6000806000600c54600e5461187b91906125e5565b600d54600860008773ffffffffffffffffffffffffffffffffffffffff1673ffffffffffffffffffffffffffffffffffffffff16815260200190815260200160002054600960008873ffffffffffffffffffffffffffffffffffffffff1673ffffffffffffffffffffffffffffffffffffffff1681526020019081526020016000205461190891906125e5565b61191291906125e5565b61191c9190612656565b90506000600c54600e5461193091906125e5565b600d54600860008873ffffffffffffffffffffffffffffffffffffffff1673ffffffffffffffffffffffffffffffffffffffff16815260200190815260200160002054600a60008973ffffffffffffffffffffffffffffffffffffffff1673ffffffffffffffffffffffffffffffffffffffff168152602001908152602001600020546119bd91906125e5565b6119c791906125e5565b6119d19190612656565b90506000600960008773ffffffffffffffffffffffffffffffffffffffff1673ffffffffffffffffffffffffffffffffffffffff168152602001908152602001600020819055506000600a60008773ffffffffffffffffffffffffffffffffffffffff1673ffffffffffffffffffffffffffffffffffffffff168152602001908152602001600020819055508160066000828254611a6f91906126cf565b925050819055508060076000828254611a8891906126cf565b925050819055508181935093505050915091565b600080600d54600e54915091509091565b60008160ff1603611b31576000600860008573ffffffffffffffffffffffffffffffffffffffff1673ffffffffffffffffffffffffffffffffffffffff1681526020019081526020016000208190555060045482600c54611b0e91906125e5565b611b189190612656565b600c6000828254611b2991906126cf565b925050819055505b60018160ff1603611c8b576000600860008573ffffffffffffffffffffffffffffffffffffffff1673ffffffffffffffffffffffffffffffffffffffff1681526020019081526020016000205403611be757600b839080600181540180825580915050600190039060005260206000200160009091909190916101000a81548173ffffffffffffffffffffffffffffffffffffffff021916908373ffffffffffffffffffffffffffffffffffffffff1602179055505b60045482600c54611bf891906125e5565b611c029190612656565b600860008573ffffffffffffffffffffffffffffffffffffffff1673ffffffffffffffffffffffffffffffffffffffff1681526020019081526020016000206000828254611c5091906125b1565b9250508190555060045482600c54611c6891906125e5565b611c729190612656565b600c6000828254611c8391906125b1565b925050819055505b60028160ff1603611d3a5760045482600c54611ca791906125e5565b611cb19190612656565b600860008573ffffffffffffffffffffffffffffffffffffffff1673ffffffffffffffffffffffffffffffffffffffff1681526020019081526020016000206000828254611cff91906126cf565b9250508190555060045482600c54611d1791906125e5565b611d219190612656565b600c6000828254611d3291906126cf565b925050819055505b505050565b60003411611d82576040517f08c379a0000000000000000000000000000000000000000000000000000000008152600401611d7990612dfe565b60405180910390fd5b600060055434600454611d9591906125e5565b611d9f9190612656565b9050600360009054906101000a900473ffffffffffffffffffffffffffffffffffffffff1673ffffffffffffffffffffffffffffffffffffffff166370a08231336040518263ffffffff1660e01b8152600401611dfc9190612327565b602060405180830381865afa158015611e19573d6000803e3d6000fd5b505050506040513d601f19601f82011682018060405250810190611e3d9190612a65565b811115611e7f576040517f08c379a0000000000000000000000000000000000000000000000000000000008152600401611e7690612e90565b60405180910390fd5b600360009054906101000a900473ffffffffffffffffffffffffffffffffffffffff1673ffffffffffffffffffffffffffffffffffffffff166323b872dd3330846040518463ffffffff1660e01b8152600401611ede939291906128d5565b6020604051808303816000875af1158015611efd573d6000803e3d6000fd5b505050506040513d601f19601f82011682018060405250810190611f21919061283c565b508060046000828254611f3491906125b1565b925050819055503460056000828254611f4d91906125b1565b92505081905550600554600454611f6491906125e5565b600f81905550611f7633826001611aad565b50565b611f816120b3565b600073ffffffffffffffffffffffffffffffffffffffff168173ffffffffffffffffffffffffffffffffffffffff1603611ff35760006040517f1e4fbdf7000000000000000000000000000000000000000000000000000000008152600401611fea9190612327565b60405180910390fd5b611ffc8161213a565b50565b6001805461200c90612edf565b80601f016020809104026020016040519081016040528092919081815260200182805461203890612edf565b80156120855780601f1061205a57610100808354040283529160200191612085565b820191906000526020600020905b81548152906001019060200180831161206857829003601f168201915b505050505081565b600360009054906101000a900473ffffffffffffffffffffffffffffffffffffffff1681565b6120bb6121fe565b73ffffffffffffffffffffffffffffffffffffffff166120d9610d4a565b73ffffffffffffffffffffffffffffffffffffffff1614612138576120fc6121fe565b6040517f118cdaa700000000000000000000000000000000000000000000000000000000815260040161212f9190612327565b60405180910390fd5b565b60008060009054906101000a900473ffffffffffffffffffffffffffffffffffffffff169050816000806101000a81548173ffffffffffffffffffffffffffffffffffffffff021916908373ffffffffffffffffffffffffffffffffffffffff1602179055508173ffffffffffffffffffffffffffffffffffffffff168173ffffffffffffffffffffffffffffffffffffffff167f8be0079c531659141344cd1fd0a4f28419497f9722a3daafe3b4186f6b6457e060405160405180910390a35050565b600033905090565b6000819050919050565b61221981612206565b82525050565b60006040820190506122346000830185612210565b6122416020830184612210565b9392505050565b600080fd5b61225681612206565b811461226157600080fd5b50565b6000813590506122738161224d565b92915050565b600080604083850312156122905761228f612248565b5b600061229e85828601612264565b92505060206122af85828601612264565b9150509250929050565b6000602082840312156122cf576122ce612248565b5b60006122dd84828501612264565b91505092915050565b600073ffffffffffffffffffffffffffffffffffffffff82169050919050565b6000612311826122e6565b9050919050565b61232181612306565b82525050565b600060208201905061233c6000830184612318565b92915050565b61234b81612306565b811461235657600080fd5b50565b60008135905061236881612342565b92915050565b60006020828403121561238457612383612248565b5b600061239284828501612359565b91505092915050565b600060ff82169050919050565b6123b18161239b565b81146123bc57600080fd5b50565b6000813590506123ce816123a8565b92915050565b6000806000606084860312156123ed576123ec612248565b5b60006123fb86828701612359565b935050602061240c86828701612264565b925050604061241d868287016123bf565b9150509250925092565b600081519050919050565b600082825260208201905092915050565b60005b83811015612461578082015181840152602081019050612446565b60008484015250505050565b6000601f19601f8301169050919050565b600061248982612427565b6124938185612432565b93506124a3818560208601612443565b6124ac8161246d565b840191505092915050565b600060208201905081810360008301526124d1818461247e565b905092915050565b6000819050919050565b60006124fe6124f96124f4846122e6565b6124d9565b6122e6565b9050919050565b6000612510826124e3565b9050919050565b600061252282612505565b9050919050565b61253281612517565b82525050565b600060208201905061254d6000830184612529565b92915050565b7f4e487b7100000000000000000000000000000000000000000000000000000000600052603260045260246000fd5b7f4e487b7100000000000000000000000000000000000000000000000000000000600052601160045260246000fd5b60006125bc82612206565b91506125c783612206565b92508282019050808211156125df576125de612582565b5b92915050565b60006125f082612206565b91506125fb83612206565b925082820261260981612206565b915082820484148315176126205761261f612582565b5b5092915050565b7f4e487b7100000000000000000000000000000000000000000000000000000000600052601260045260246000fd5b600061266182612206565b915061266c83612206565b92508261267c5761267b612627565b5b828204905092915050565b600061269282612206565b91507fffffffffffffffffffffffffffffffffffffffffffffffffffffffffffffffff82036126c4576126c3612582565b5b600182019050919050565b60006126da82612206565b91506126e583612206565b92508282039050818111156126fd576126fc612582565b5b92915050565b7f4e6f74206861766520656e6f75676820746f6b656e7320746f20737761700000600082015250565b6000612739601e83612432565b915061274482612703565b602082019050919050565b600060208201905081810360008301526127688161272c565b9050919050565b7f536c697070616765000000000000000000000000000000000000000000000000600082015250565b60006127a5600883612432565b91506127b08261276f565b602082019050919050565b600060208201905081810360008301526127d481612798565b9050919050565b60006040820190506127f06000830185612318565b6127fd6020830184612210565b9392505050565b60008115159050919050565b61281981612804565b811461282457600080fd5b50565b60008151905061283681612810565b92915050565b60006020828403121561285257612851612248565b5b600061286084828501612827565b91505092915050565b7f546f6b656e20646f65736e277420617070726f76650000000000000000000000600082015250565b600061289f601583612432565b91506128aa82612869565b602082019050919050565b600060208201905081810360008301526128ce81612892565b9050919050565b60006060820190506128ea6000830186612318565b6128f76020830185612318565b6129046040830184612210565b949350505050565b7f546f6b656e20726573657276657320776173206e6f7420300000000000000000600082015250565b6000612942601883612432565b915061294d8261290c565b602082019050919050565b6000602082019050818103600083015261297181612935565b9050919050565b7f45544820726573657276657320776173206e6f7420302e000000000000000000600082015250565b60006129ae601783612432565b91506129b982612978565b602082019050919050565b600060208201905081810360008301526129dd816129a1565b9050919050565b7f4e6565642065746820746f2063726561746520706f6f6c2e0000000000000000600082015250565b6000612a1a601883612432565b9150612a25826129e4565b602082019050919050565b60006020820190508181036000830152612a4981612a0d565b9050919050565b600081519050612a5f8161224d565b92915050565b600060208284031215612a7b57612a7a612248565b5b6000612a8984828501612a50565b91505092915050565b7f4e6f74206861766520656e6f75676820746f6b656e7320746f2063726561746560008201527f2074686520706f6f6c0000000000000000000000000000000000000000000000602082015250565b6000612aee602983612432565b9150612af982612a92565b604082019050919050565b60006020820190508181036000830152612b1d81612ae1565b9050919050565b7f4e65656420746f6b656e7320746f2063726561746520706f6f6c2e0000000000600082015250565b6000612b5a601b83612432565b9150612b6582612b24565b602082019050919050565b60006020820190508181036000830152612b8981612b4d565b9050919050565b7f4e6f74206861766520656e6f75676820746f6b656e732f65746820746f20726560008201527f6d6f7665206c6971756964697479000000000000000000000000000000000000602082015250565b6000612bec602e83612432565b9150612bf782612b90565b604082019050919050565b60006020820190508181036000830152612c1b81612bdf565b9050919050565b7f4e6f742070726f7669646520656e6f756768206c697175696469747920746f2060008201527f72656d6f76650000000000000000000000000000000000000000000000000000602082015250565b6000612c7e602683612432565b9150612c8982612c22565b604082019050919050565b60006020820190508181036000830152612cad81612c71565b9050919050565b7f53656e64657220646f65736e2774206861766520656e6f75676820746f6b656e60008201527f20746f2073776170000000000000000000000000000000000000000000000000602082015250565b6000612d10602883612432565b9150612d1b82612cb4565b604082019050919050565b60006020820190508181036000830152612d3f81612d03565b9050919050565b7f4e6f74206861766520656e6f7567682045544820746f20737761700000000000600082015250565b6000612d7c601b83612432565b9150612d8782612d46565b602082019050919050565b60006020820190508181036000830152612dab81612d6f565b9050919050565b7f4e6565642065746820746f20616464206c69717569646974792e000000000000600082015250565b6000612de8601a83612432565b9150612df382612db2565b602082019050919050565b60006020820190508181036000830152612e1781612ddb565b9050919050565b7f4e6f74206861766520656e6f75676820746f6b656e7320746f20616464206c6960008201527f717569646974792e000000000000000000000000000000000000000000000000602082015250565b6000612e7a602883612432565b9150612e8582612e1e565b604082019050919050565b60006020820190508181036000830152612ea981612e6d565b9050919050565b7f4e487b7100000000000000000000000000000000000000000000000000000000600052602260045260246000fd5b60006002820490506001821680612ef757607f821691505b602082108103612f0a57612f09612eb0565b5b5091905056fea26469706673582212201dcdd836c5951dfca2fd52e2e1d5ad338d6a352146cd530bbefbdcfe1bfe267064736f6c63430008140033",
  "linkReferences": {},
  "deployedLinkReferences": {}
}