{
  "_format": "hh-sol-artifact-1",
  "contractName": "Token",
  "sourceName": "contracts/token.sol",
  "abi": [
    {
      "inputs": [],
      "stateMutability": "nonpayable",
      "type": "constructor"
    },
    {
      "inputs": [
        {
          "internalType": "address",
          "name": "spender",
          "type": "address"
        },
        {
          "internalType": "uint256",
          "name": "allowance",
          "type": "uint256"
        },
        {
          "internalType": "uint256",
          "name": "needed",
          "type": "uint256"
        }
      ],
      "name": "ERC20InsufficientAllowance",
      "type": "error"
    },
    {
      "inputs": [
        {
          "internalType": "address",
          "name": "sender",
          "type": "address"
        },
        {
          "internalType": "uint256",
          "name": "balance",
          "type": "uint256"
        },
        {
          "internalType": "uint256",
          "name": "needed",
          "type": "uint256"
        }
      ],
      "name": "ERC20InsufficientBalance",
      "type": "error"
    },
    {
      "inputs": [
        {
          "internalType": "address",
          "name": "approver",
          "type": "address"
        }
      ],
      "name": "ERC20InvalidApprover",
      "type": "error"
    },
    {
      "inputs": [
        {
          "internalType": "address",
          "name": "receiver",
          "type": "address"
        }
      ],
      "name": "ERC20InvalidReceiver",
      "type": "error"
    },
    {
      "inputs": [
        {
          "internalType": "address",
          "name": "sender",
          "type": "address"
        }
      ],
      "name": "ERC20InvalidSender",
      "type": "error"
    },
    {
      "inputs": [
        {
          "internalType": "address",
          "name": "spender",
          "type": "address"
        }
      ],
      "name": "ERC20InvalidSpender",
      "type": "error"
    },
    {
      "inputs": [
        {
          "internalType": "address",
          "name": "owner",
          "type": "address"
        }
      ],
      "name": "OwnableInvalidOwner",
      "type": "error"
    },
    {
      "inputs": [
        {
          "internalType": "address",
          "name": "account",
          "type": "address"
        }
      ],
      "name": "OwnableUnauthorizedAccount",
      "type": "error"
    },
    {
      "anonymous": false,
      "inputs": [
        {
          "indexed": true,
          "internalType": "address",
          "name": "owner",
          "type": "address"
        },
        {
          "indexed": true,
          "internalType": "address",
          "name": "spender",
          "type": "address"
        },
        {
          "indexed": false,
          "internalType": "uint256",
          "name": "value",
          "type": "uint256"
        }
      ],
      "name": "Approval",
      "type": "event"
    },
    {
      "anonymous": false,
      "inputs": [
        {
          "indexed": true,
          "internalType": "address",
          "name": "previousOwner",
          "type": "address"
        },
        {
          "indexed": true,
          "internalType": "address",
          "name": "newOwner",
          "type": "address"
        }
      ],
      "name": "OwnershipTransferred",
      "type": "event"
    },
    {
      "anonymous": false,
      "inputs": [
        {
          "indexed": true,
          "internalType": "address",
          "name": "from",
          "type": "address"
        },
        {
          "indexed": true,
          "internalType": "address",
          "name": "to",
          "type": "address"
        },
        {
          "indexed": false,
          "internalType": "uint256",
          "name": "value",
          "type": "uint256"
        }
      ],
      "name": "Transfer",
      "type": "event"
    },
    {
      "inputs": [
        {
          "internalType": "address",
          "name": "owner",
          "type": "address"
        },
        {
          "internalType": "address",
          "name": "spender",
          "type": "address"
        }
      ],
      "name": "allowance",
      "outputs": [
        {
          "internalType": "uint256",
          "name": "",
          "type": "uint256"
        }
      ],
      "stateMutability": "view",
      "type": "function"
    },
    {
      "inputs": [
        {
          "internalType": "address",
          "name": "spender",
          "type": "address"
        },
        {
          "internalType": "uint256",
          "name": "value",
          "type": "uint256"
        }
      ],
      "name": "approve",
      "outputs": [
        {
          "internalType": "bool",
          "name": "",
          "type": "bool"
        }
      ],
      "stateMutability": "nonpayable",
      "type": "function"
    },
    {
      "inputs": [
        {
          "internalType": "address",
          "name": "account",
          "type": "address"
        }
      ],
      "name": "balanceOf",
      "outputs": [
        {
          "internalType": "uint256",
          "name": "",
          "type": "uint256"
        }
      ],
      "stateMutability": "view",
      "type": "function"
    },
    {
      "inputs": [],
      "name": "decimals",
      "outputs": [
        {
          "internalType": "uint8",
          "name": "",
          "type": "uint8"
        }
      ],
      "stateMutability": "view",
      "type": "function"
    },
    {
      "inputs": [],
      "name": "disable_mint",
      "outputs": [],
      "stateMutability": "nonpayable",
      "type": "function"
    },
    {
      "inputs": [
        {
          "internalType": "uint256",
          "name": "amount",
          "type": "uint256"
        }
      ],
      "name": "mint",
      "outputs": [],
      "stateMutability": "nonpayable",
      "type": "function"
    },
    {
      "inputs": [],
      "name": "name",
      "outputs": [
        {
          "internalType": "string",
          "name": "",
          "type": "string"
        }
      ],
      "stateMutability": "view",
      "type": "function"
    },
    {
      "inputs": [],
      "name": "owner",
      "outputs": [
        {
          "internalType": "address",
          "name": "",
          "type": "address"
        }
      ],
      "stateMutability": "view",
      "type": "function"
    },
    {
      "inputs": [],
      "name": "renounceOwnership",
      "outputs": [],
      "stateMutability": "nonpayable",
      "type": "function"
    },
    {
      "inputs": [],
      "name": "symbol",
      "outputs": [
        {
          "internalType": "string",
          "name": "",
          "type": "string"
        }
      ],
      "stateMutability": "view",
      "type": "function"
    },
    {
      "inputs": [],
      "name": "totalSupply",
      "outputs": [
        {
          "internalType": "uint256",
          "name": "",
          "type": "uint256"
        }
      ],
      "stateMutability": "view",
      "type": "function"
    },
    {
      "inputs": [
        {
          "internalType": "address",
          "name": "to",
          "type": "address"
        },
        {
          "internalType": "uint256",
          "name": "value",
          "type": "uint256"
        }
      ],
      "name": "transfer",
      "outputs": [
        {
          "internalType": "bool",
          "name": "",
          "type": "bool"
        }
      ],
      "stateMutability": "nonpayable",
      "type": "function"
    },
    {
      "inputs": [
        {
          "internalType": "address",
          "name": "from",
          "type": "address"
        },
        {
          "internalType": "address",
          "name": "to",
          "type": "address"
        },
        {
          "internalType": "uint256",
          "name": "value",
          "type": "uint256"
        }
      ],
      "name": "transferFrom",
      "outputs": [
        {
          "internalType": "bool",
          "name": "",
          "type": "bool"
        }
      ],
      "stateMutability": "nonpayable",
      "type": "function"
    },
    {
      "inputs": [
        {
          "internalType": "address",
          "name": "newOwner",
          "type": "address"
        }
      ],
      "name": "transferOwnership",
      "outputs": [],
      "stateMutability": "nonpayable",
      "type": "function"
    }
  ],
  "bytecode": "0x60806040526000600660006101000a81548160ff0219169083151502179055503480156200002c57600080fd5b506040518060400160405280600581526020017f416c6c696e0000000000000000000000000000000000000000000000000000008152506040518060400160405280600381526020017f414c4e000000000000000000000000000000000000000000000000000000000081525033600073ffffffffffffffffffffffffffffffffffffffff168173ffffffffffffffffffffffffffffffffffffffff16036200010f5760006040517f1e4fbdf700000000000000000000000000000000000000000000000000000000815260040162000106919062000256565b60405180910390fd5b62000120816200014d60201b60201c565b508160049081620001329190620004ed565b508060059081620001449190620004ed565b505050620005d4565b60008060009054906101000a900473ffffffffffffffffffffffffffffffffffffffff169050816000806101000a81548173ffffffffffffffffffffffffffffffffffffffff021916908373ffffffffffffffffffffffffffffffffffffffff1602179055508173ffffffffffffffffffffffffffffffffffffffff168173ffffffffffffffffffffffffffffffffffffffff167f8be0079c531659141344cd1fd0a4f28419497f9722a3daafe3b4186f6b6457e060405160405180910390a35050565b600073ffffffffffffffffffffffffffffffffffffffff82169050919050565b60006200023e8262000211565b9050919050565b620002508162000231565b82525050565b60006020820190506200026d600083018462000245565b92915050565b600081519050919050565b7f4e487b7100000000000000000000000000000000000000000000000000000000600052604160045260246000fd5b7f4e487b7100000000000000000000000000000000000000000000000000000000600052602260045260246000fd5b60006002820490506001821680620002f557607f821691505b6020821081036200030b576200030a620002ad565b5b50919050565b60008190508160005260206000209050919050565b60006020601f8301049050919050565b600082821b905092915050565b600060088302620003757fffffffffffffffffffffffffffffffffffffffffffffffffffffffffffffffff8262000336565b62000381868362000336565b95508019841693508086168417925050509392505050565b6000819050919050565b6000819050919050565b6000620003ce620003c8620003c28462000399565b620003a3565b62000399565b9050919050565b6000819050919050565b620003ea83620003ad565b62000402620003f982620003d5565b84845462000343565b825550505050565b600090565b620004196200040a565b62000426818484620003df565b505050565b5b818110156200044e57620004426000826200040f565b6001810190506200042c565b5050565b601f8211156200049d57620004678162000311565b620004728462000326565b8101602085101562000482578190505b6200049a620004918562000326565b8301826200042b565b50505b505050565b600082821c905092915050565b6000620004c260001984600802620004a2565b1980831691505092915050565b6000620004dd8383620004af565b9150826002028217905092915050565b620004f88262000273565b67ffffffffffffffff8111156200051457620005136200027e565b5b620005208254620002dc565b6200052d82828562000452565b600060209050601f83116001811462000565576000841562000550578287015190505b6200055c8582620004cf565b865550620005cc565b601f198416620005758662000311565b60005b828110156200059f5784890151825560018201915060208501945060208101905062000578565b86831015620005bf5784890151620005bb601f891682620004af565b8355505b6001600288020188555050505b505050505050565b6112d380620005e46000396000f3fe608060405234801561001057600080fd5b50600436106100ea5760003560e01c80638da5cb5b1161008c578063a8b7818d11610066578063a8b7818d1461023b578063a9059cbb14610245578063dd62ed3e14610275578063f2fde38b146102a5576100ea565b80638da5cb5b146101e357806395d89b4114610201578063a0712d681461021f576100ea565b806323b872dd116100c857806323b872dd1461015b578063313ce5671461018b57806370a08231146101a9578063715018a6146101d9576100ea565b806306fdde03146100ef578063095ea7b31461010d57806318160ddd1461013d575b600080fd5b6100f76102c1565b6040516101049190610e8e565b60405180910390f35b61012760048036038101906101229190610f49565b610353565b6040516101349190610fa4565b60405180910390f35b610145610376565b6040516101529190610fce565b60405180910390f35b61017560048036038101906101709190610fe9565b610380565b6040516101829190610fa4565b60405180910390f35b6101936103af565b6040516101a09190611058565b60405180910390f35b6101c360048036038101906101be9190611073565b6103b8565b6040516101d09190610fce565b60405180910390f35b6101e1610401565b005b6101eb610415565b6040516101f891906110af565b60405180910390f35b61020961043e565b6040516102169190610e8e565b60405180910390f35b610239600480360381019061023491906110ca565b6104d0565b005b61024361053b565b005b61025f600480360381019061025a9190610f49565b610560565b60405161026c9190610fa4565b60405180910390f35b61028f600480360381019061028a91906110f7565b610583565b60405161029c9190610fce565b60405180910390f35b6102bf60048036038101906102ba9190611073565b61060a565b005b6060600480546102d090611166565b80601f01602080910402602001604051908101604052809291908181526020018280546102fc90611166565b80156103495780601f1061031e57610100808354040283529160200191610349565b820191906000526020600020905b81548152906001019060200180831161032c57829003601f168201915b5050505050905090565b60008061035e610690565b905061036b818585610698565b600191505092915050565b6000600354905090565b60008061038b610690565b90506103988582856106aa565b6103a385858561073e565b60019150509392505050565b60006012905090565b6000600160008373ffffffffffffffffffffffffffffffffffffffff1673ffffffffffffffffffffffffffffffffffffffff168152602001908152602001600020549050919050565b610409610832565b61041360006108b9565b565b60008060009054906101000a900473ffffffffffffffffffffffffffffffffffffffff16905090565b60606005805461044d90611166565b80601f016020809104026020016040519081016040528092919081815260200182805461047990611166565b80156104c65780601f1061049b576101008083540402835291602001916104c6565b820191906000526020600020905b8154815290600101906020018083116104a957829003601f168201915b5050505050905090565b6104d8610832565b60001515600660009054906101000a900460ff1615151461052e576040517f08c379a0000000000000000000000000000000000000000000000000000000008152600401610525906111e3565b60405180910390fd5b610538338261097d565b50565b610543610832565b6001600660006101000a81548160ff021916908315150217905550565b60008061056b610690565b905061057881858561073e565b600191505092915050565b6000600260008473ffffffffffffffffffffffffffffffffffffffff1673ffffffffffffffffffffffffffffffffffffffff16815260200190815260200160002060008373ffffffffffffffffffffffffffffffffffffffff1673ffffffffffffffffffffffffffffffffffffffff16815260200190815260200160002054905092915050565b610612610832565b600073ffffffffffffffffffffffffffffffffffffffff168173ffffffffffffffffffffffffffffffffffffffff16036106845760006040517f1e4fbdf700000000000000000000000000000000000000000000000000000000815260040161067b91906110af565b60405180910390fd5b61068d816108b9565b50565b600033905090565b6106a583838360016109ff565b505050565b60006106b68484610583565b90507fffffffffffffffffffffffffffffffffffffffffffffffffffffffffffffffff81146107385781811015610728578281836040517ffb8f41b200000000000000000000000000000000000000000000000000000000815260040161071f93929190611203565b60405180910390fd5b610737848484840360006109ff565b5b50505050565b600073ffffffffffffffffffffffffffffffffffffffff168373ffffffffffffffffffffffffffffffffffffffff16036107b05760006040517f96c6fd1e0000000000000000000000000000000000000000000000000000000081526004016107a791906110af565b60405180910390fd5b600073ffffffffffffffffffffffffffffffffffffffff168273ffffffffffffffffffffffffffffffffffffffff16036108225760006040517fec442f0500000000000000000000000000000000000000000000000000000000815260040161081991906110af565b60405180910390fd5b61082d838383610bd6565b505050565b61083a610690565b73ffffffffffffffffffffffffffffffffffffffff16610858610415565b73ffffffffffffffffffffffffffffffffffffffff16146108b75761087b610690565b6040517f118cdaa70000000000000000000000000000000000000000000000000000000081526004016108ae91906110af565b60405180910390fd5b565b60008060009054906101000a900473ffffffffffffffffffffffffffffffffffffffff169050816000806101000a81548173ffffffffffffffffffffffffffffffffffffffff021916908373ffffffffffffffffffffffffffffffffffffffff1602179055508173ffffffffffffffffffffffffffffffffffffffff168173ffffffffffffffffffffffffffffffffffffffff167f8be0079c531659141344cd1fd0a4f28419497f9722a3daafe3b4186f6b6457e060405160405180910390a35050565b600073ffffffffffffffffffffffffffffffffffffffff168273ffffffffffffffffffffffffffffffffffffffff16036109ef5760006040517fec442f050000000000000000000000000000000000000000000000000000000081526004016109e691906110af565b60405180910390fd5b6109fb60008383610bd6565b5050565b600073ffffffffffffffffffffffffffffffffffffffff168473ffffffffffffffffffffffffffffffffffffffff1603610a715760006040517fe602df05000000000000000000000000000000000000000000000000000000008152600401610a6891906110af565b60405180910390fd5b600073ffffffffffffffffffffffffffffffffffffffff168373ffffffffffffffffffffffffffffffffffffffff1603610ae35760006040517f94280d62000000000000000000000000000000000000000000000000000000008152600401610ada91906110af565b60405180910390fd5b81600260008673ffffffffffffffffffffffffffffffffffffffff1673ffffffffffffffffffffffffffffffffffffffff16815260200190815260200160002060008573ffffffffffffffffffffffffffffffffffffffff1673ffffffffffffffffffffffffffffffffffffffff168152602001908152602001600020819055508015610bd0578273ffffffffffffffffffffffffffffffffffffffff168473ffffffffffffffffffffffffffffffffffffffff167f8c5be1e5ebec7d5bd14f71427d1e84f3dd0314c0f7b2291e5b200ac8c7c3b92584604051610bc79190610fce565b60405180910390a35b50505050565b600073ffffffffffffffffffffffffffffffffffffffff168373ffffffffffffffffffffffffffffffffffffffff1603610c28578060036000828254610c1c9190611269565b92505081905550610cfd565b6000600160008573ffffffffffffffffffffffffffffffffffffffff1673ffffffffffffffffffffffffffffffffffffffff16815260200190815260200160002054905081811015610cb5578381836040517fe450d38c000000000000000000000000000000000000000000000000000000008152600401610cac93929190611203565b60405180910390fd5b818103600160008673ffffffffffffffffffffffffffffffffffffffff1673ffffffffffffffffffffffffffffffffffffffff16815260200190815260200160002081905550505b600073ffffffffffffffffffffffffffffffffffffffff168273ffffffffffffffffffffffffffffffffffffffff1603610d465780600360008282540392505081905550610d94565b80600160008473ffffffffffffffffffffffffffffffffffffffff1673ffffffffffffffffffffffffffffffffffffffff168152602001908152602001600020600082825401925050819055505b8173ffffffffffffffffffffffffffffffffffffffff168373ffffffffffffffffffffffffffffffffffffffff167fddf252ad1be2c89b69c2b068fc378daa952ba7f163c4a11628f55a4df523b3ef83604051610df19190610fce565b60405180910390a3505050565b600081519050919050565b600082825260208201905092915050565b60005b83811015610e38578082015181840152602081019050610e1d565b60008484015250505050565b6000601f19601f8301169050919050565b6000610e6082610dfe565b610e6a8185610e09565b9350610e7a818560208601610e1a565b610e8381610e44565b840191505092915050565b60006020820190508181036000830152610ea88184610e55565b905092915050565b600080fd5b600073ffffffffffffffffffffffffffffffffffffffff82169050919050565b6000610ee082610eb5565b9050919050565b610ef081610ed5565b8114610efb57600080fd5b50565b600081359050610f0d81610ee7565b92915050565b6000819050919050565b610f2681610f13565b8114610f3157600080fd5b50565b600081359050610f4381610f1d565b92915050565b60008060408385031215610f6057610f5f610eb0565b5b6000610f6e85828601610efe565b9250506020610f7f85828601610f34565b9150509250929050565b60008115159050919050565b610f9e81610f89565b82525050565b6000602082019050610fb96000830184610f95565b92915050565b610fc881610f13565b82525050565b6000602082019050610fe36000830184610fbf565b92915050565b60008060006060848603121561100257611001610eb0565b5b600061101086828701610efe565b935050602061102186828701610efe565b925050604061103286828701610f34565b9150509250925092565b600060ff82169050919050565b6110528161103c565b82525050565b600060208201905061106d6000830184611049565b92915050565b60006020828403121561108957611088610eb0565b5b600061109784828501610efe565b91505092915050565b6110a981610ed5565b82525050565b60006020820190506110c460008301846110a0565b92915050565b6000602082840312156110e0576110df610eb0565b5b60006110ee84828501610f34565b91505092915050565b6000806040838503121561110e5761110d610eb0565b5b600061111c85828601610efe565b925050602061112d85828601610efe565b9150509250929050565b7f4e487b7100000000000000000000000000000000000000000000000000000000600052602260045260246000fd5b6000600282049050600182168061117e57607f821691505b60208210810361119157611190611137565b5b50919050565b7f4d696e74696e672069732064697361626c656400000000000000000000000000600082015250565b60006111cd601383610e09565b91506111d882611197565b602082019050919050565b600060208201905081810360008301526111fc816111c0565b9050919050565b600060608201905061121860008301866110a0565b6112256020830185610fbf565b6112326040830184610fbf565b949350505050565b7f4e487b7100000000000000000000000000000000000000000000000000000000600052601160045260246000fd5b600061127482610f13565b915061127f83610f13565b92508282019050808211156112975761129661123a565b5b9291505056fea26469706673582212200963bf64a2629512fb5c63648deac8d5639fc787f28b37a6b9bbf58f0751361864736f6c63430008140033",
  "linkReferences": {},
  "deployedLinkReferences": {}
}